{
  "contractName": "SupplyChain",
  "abi": [
    {
      "inputs": [],
      "stateMutability": "nonpayable",
      "type": "constructor"
    },
    {
      "anonymous": false,
      "inputs": [
        {
          "indexed": false,
          "internalType": "uint256",
          "name": "productId",
          "type": "uint256"
        },
        {
          "indexed": true,
          "internalType": "address",
          "name": "from",
          "type": "address"
        },
        {
          "indexed": true,
          "internalType": "address",
          "name": "to",
          "type": "address"
        }
      ],
      "name": "OwnershipTransferred",
      "type": "event"
    },
    {
      "anonymous": false,
      "inputs": [
        {
          "indexed": false,
          "internalType": "uint256",
          "name": "productId",
          "type": "uint256"
        },
        {
          "indexed": false,
          "internalType": "string",
          "name": "name",
          "type": "string"
        },
        {
          "indexed": true,
          "internalType": "address",
          "name": "farmer",
          "type": "address"
        }
      ],
      "name": "ProductRegistered",
      "type": "event"
    },
    {
      "anonymous": false,
      "inputs": [
        {
          "indexed": false,
          "internalType": "uint256",
          "name": "productId",
          "type": "uint256"
        },
        {
          "indexed": false,
          "internalType": "enum SupplyChain.State",
          "name": "newState",
          "type": "uint8"
        },
        {
          "indexed": false,
          "internalType": "string",
          "name": "ipfsData",
          "type": "string"
        }
      ],
      "name": "StatusUpdated",
      "type": "event"
    },
    {
      "inputs": [
        {
          "internalType": "uint256",
          "name": "",
          "type": "uint256"
        }
      ],
      "name": "allProductIds",
      "outputs": [
        {
          "internalType": "uint256",
          "name": "",
          "type": "uint256"
        }
      ],
      "stateMutability": "view",
      "type": "function",
      "constant": true
    },
    {
      "inputs": [],
      "name": "contractOwner",
      "outputs": [
        {
          "internalType": "address",
          "name": "",
          "type": "address"
        }
      ],
      "stateMutability": "view",
      "type": "function",
      "constant": true
    },
    {
      "inputs": [
        {
          "internalType": "address",
          "name": "",
          "type": "address"
        }
      ],
      "name": "isAuthorizedEntity",
      "outputs": [
        {
          "internalType": "bool",
          "name": "",
          "type": "bool"
        }
      ],
      "stateMutability": "view",
      "type": "function",
      "constant": true
    },
    {
      "inputs": [
        {
          "internalType": "address",
          "name": "",
          "type": "address"
        }
      ],
      "name": "isVerifiedFarmer",
      "outputs": [
        {
          "internalType": "bool",
          "name": "",
          "type": "bool"
        }
      ],
      "stateMutability": "view",
      "type": "function",
      "constant": true
    },
    {
      "inputs": [
        {
          "internalType": "uint256",
          "name": "",
          "type": "uint256"
        }
      ],
      "name": "products",
      "outputs": [
        {
          "internalType": "uint256",
          "name": "id",
          "type": "uint256"
        },
        {
          "internalType": "address",
          "name": "currentOwner",
          "type": "address"
        },
        {
          "internalType": "address",
          "name": "orderedBy",
          "type": "address"
        },
        {
          "internalType": "enum SupplyChain.State",
          "name": "state",
          "type": "uint8"
        },
        {
          "internalType": "bool",
          "name": "isAuthentic",
          "type": "bool"
        },
        {
          "internalType": "string",
          "name": "name",
          "type": "string"
        },
        {
          "internalType": "string",
          "name": "origin",
          "type": "string"
        },
        {
          "internalType": "string",
          "name": "ipfsHash",
          "type": "string"
        }
      ],
      "stateMutability": "view",
      "type": "function",
      "constant": true
    },
    {
      "inputs": [
        {
          "internalType": "address",
          "name": "_user",
          "type": "address"
        }
      ],
      "name": "setFarmerRole",
      "outputs": [],
      "stateMutability": "nonpayable",
      "type": "function"
    },
    {
      "inputs": [
        {
          "internalType": "address",
          "name": "_user",
          "type": "address"
        }
      ],
      "name": "setEntityRole",
      "outputs": [],
      "stateMutability": "nonpayable",
      "type": "function"
    },
    {
      "inputs": [
        {
          "internalType": "uint256",
          "name": "_id",
          "type": "uint256"
        },
        {
          "internalType": "string",
          "name": "_name",
          "type": "string"
        },
        {
          "internalType": "string",
          "name": "_origin",
          "type": "string"
        },
        {
          "internalType": "string",
          "name": "_ipfsHash",
          "type": "string"
        }
      ],
      "name": "registerProduct",
      "outputs": [],
      "stateMutability": "nonpayable",
      "type": "function"
    },
    {
      "inputs": [],
      "name": "getAvailableProducts",
      "outputs": [
        {
          "components": [
            {
              "internalType": "uint256",
              "name": "id",
              "type": "uint256"
            },
            {
              "internalType": "address",
              "name": "currentOwner",
              "type": "address"
            },
            {
              "internalType": "address",
              "name": "orderedBy",
              "type": "address"
            },
            {
              "internalType": "enum SupplyChain.State",
              "name": "state",
              "type": "uint8"
            },
            {
              "internalType": "bool",
              "name": "isAuthentic",
              "type": "bool"
            },
            {
              "internalType": "string",
              "name": "name",
              "type": "string"
            },
            {
              "internalType": "string",
              "name": "origin",
              "type": "string"
            },
            {
              "internalType": "string",
              "name": "ipfsHash",
              "type": "string"
            }
          ],
          "internalType": "struct SupplyChain.Product[]",
          "name": "",
          "type": "tuple[]"
        }
      ],
      "stateMutability": "view",
      "type": "function",
      "constant": true
    },
    {
      "inputs": [
        {
          "internalType": "uint256",
          "name": "_id",
          "type": "uint256"
        }
      ],
      "name": "placeOrder",
      "outputs": [],
      "stateMutability": "nonpayable",
      "type": "function"
    },
    {
      "inputs": [],
      "name": "getMyOrders",
      "outputs": [
        {
          "components": [
            {
              "internalType": "uint256",
              "name": "id",
              "type": "uint256"
            },
            {
              "internalType": "address",
              "name": "currentOwner",
              "type": "address"
            },
            {
              "internalType": "address",
              "name": "orderedBy",
              "type": "address"
            },
            {
              "internalType": "enum SupplyChain.State",
              "name": "state",
              "type": "uint8"
            },
            {
              "internalType": "bool",
              "name": "isAuthentic",
              "type": "bool"
            },
            {
              "internalType": "string",
              "name": "name",
              "type": "string"
            },
            {
              "internalType": "string",
              "name": "origin",
              "type": "string"
            },
            {
              "internalType": "string",
              "name": "ipfsHash",
              "type": "string"
            }
          ],
          "internalType": "struct SupplyChain.Product[]",
          "name": "",
          "type": "tuple[]"
        }
      ],
      "stateMutability": "view",
      "type": "function",
      "constant": true
    },
    {
      "inputs": [
        {
          "internalType": "uint256",
          "name": "_id",
          "type": "uint256"
        },
        {
          "internalType": "address",
          "name": "_newOwner",
          "type": "address"
        }
      ],
      "name": "transferOwnership",
      "outputs": [],
      "stateMutability": "nonpayable",
      "type": "function"
    },
    {
      "inputs": [
        {
          "internalType": "uint256",
          "name": "_id",
          "type": "uint256"
        },
        {
          "internalType": "enum SupplyChain.State",
          "name": "_newState",
          "type": "uint8"
        },
        {
          "internalType": "string",
          "name": "_ipfsData",
          "type": "string"
        }
      ],
      "name": "updateStatus",
      "outputs": [],
      "stateMutability": "nonpayable",
      "type": "function"
    },
    {
      "inputs": [
        {
          "internalType": "uint256",
          "name": "_id",
          "type": "uint256"
        }
      ],
      "name": "getProduct",
      "outputs": [
        {
          "internalType": "uint256",
          "name": "id",
          "type": "uint256"
        },
        {
          "internalType": "string",
          "name": "name",
          "type": "string"
        },
        {
          "internalType": "address",
          "name": "currentOwner",
          "type": "address"
        },
        {
          "internalType": "string",
          "name": "origin",
          "type": "string"
        },
        {
          "internalType": "bool",
          "name": "isAuthentic",
          "type": "bool"
        },
        {
          "internalType": "enum SupplyChain.State",
          "name": "state",
          "type": "uint8"
        },
        {
          "internalType": "string",
          "name": "ipfsHash",
          "type": "string"
        },
        {
          "internalType": "address",
          "name": "orderedBy",
          "type": "address"
        }
      ],
      "stateMutability": "view",
      "type": "function",
      "constant": true
    },
    {
      "inputs": [
        {
          "internalType": "uint256",
          "name": "_id",
          "type": "uint256"
        }
      ],
      "name": "getProductHistory",
      "outputs": [
        {
          "internalType": "address[]",
          "name": "",
          "type": "address[]"
        }
      ],
      "stateMutability": "view",
      "type": "function",
      "constant": true
    },
    {
      "inputs": [
        {
          "internalType": "uint256",
          "name": "_id",
          "type": "uint256"
        }
      ],
      "name": "verifyProduct",
      "outputs": [
        {
          "internalType": "bool",
          "name": "",
          "type": "bool"
        }
      ],
      "stateMutability": "view",
      "type": "function",
      "constant": true
    },
    {
      "inputs": [],
      "name": "getDistributorInventory",
      "outputs": [
        {
          "components": [
            {
              "internalType": "uint256",
              "name": "id",
              "type": "uint256"
            },
            {
              "internalType": "address",
              "name": "currentOwner",
              "type": "address"
            },
            {
              "internalType": "address",
              "name": "orderedBy",
              "type": "address"
            },
            {
              "internalType": "enum SupplyChain.State",
              "name": "state",
              "type": "uint8"
            },
            {
              "internalType": "bool",
              "name": "isAuthentic",
              "type": "bool"
            },
            {
              "internalType": "string",
              "name": "name",
              "type": "string"
            },
            {
              "internalType": "string",
              "name": "origin",
              "type": "string"
            },
            {
              "internalType": "string",
              "name": "ipfsHash",
              "type": "string"
            }
          ],
          "internalType": "struct SupplyChain.Product[]",
          "name": "",
          "type": "tuple[]"
        }
      ],
      "stateMutability": "view",
      "type": "function",
      "constant": true
    },
    {
      "inputs": [],
      "name": "getDeliveryQueue",
      "outputs": [
        {
          "components": [
            {
              "internalType": "uint256",
              "name": "id",
              "type": "uint256"
            },
            {
              "internalType": "address",
              "name": "currentOwner",
              "type": "address"
            },
            {
              "internalType": "address",
              "name": "orderedBy",
              "type": "address"
            },
            {
              "internalType": "enum SupplyChain.State",
              "name": "state",
              "type": "uint8"
            },
            {
              "internalType": "bool",
              "name": "isAuthentic",
              "type": "bool"
            },
            {
              "internalType": "string",
              "name": "name",
              "type": "string"
            },
            {
              "internalType": "string",
              "name": "origin",
              "type": "string"
            },
            {
              "internalType": "string",
              "name": "ipfsHash",
              "type": "string"
            }
          ],
          "internalType": "struct SupplyChain.Product[]",
          "name": "",
          "type": "tuple[]"
        }
      ],
      "stateMutability": "view",
      "type": "function",
      "constant": true
    },
    {
      "inputs": [],
      "name": "getReceivedProducts",
      "outputs": [
        {
          "components": [
            {
              "internalType": "uint256",
              "name": "id",
              "type": "uint256"
            },
            {
              "internalType": "address",
              "name": "currentOwner",
              "type": "address"
            },
            {
              "internalType": "address",
              "name": "orderedBy",
              "type": "address"
            },
            {
              "internalType": "enum SupplyChain.State",
              "name": "state",
              "type": "uint8"
            },
            {
              "internalType": "bool",
              "name": "isAuthentic",
              "type": "bool"
            },
            {
              "internalType": "string",
              "name": "name",
              "type": "string"
            },
            {
              "internalType": "string",
              "name": "origin",
              "type": "string"
            },
            {
              "internalType": "string",
              "name": "ipfsHash",
              "type": "string"
            }
          ],
          "internalType": "struct SupplyChain.Product[]",
          "name": "",
          "type": "tuple[]"
        }
      ],
      "stateMutability": "view",
      "type": "function",
      "constant": true
    },
    {
      "inputs": [],
      "name": "getDeliveryHistory",
      "outputs": [
        {
          "components": [
            {
              "internalType": "uint256",
              "name": "id",
              "type": "uint256"
            },
            {
              "internalType": "address",
              "name": "currentOwner",
              "type": "address"
            },
            {
              "internalType": "address",
              "name": "orderedBy",
              "type": "address"
            },
            {
              "internalType": "enum SupplyChain.State",
              "name": "state",
              "type": "uint8"
            },
            {
              "internalType": "bool",
              "name": "isAuthentic",
              "type": "bool"
            },
            {
              "internalType": "string",
              "name": "name",
              "type": "string"
            },
            {
              "internalType": "string",
              "name": "origin",
              "type": "string"
            },
            {
              "internalType": "string",
              "name": "ipfsHash",
              "type": "string"
            }
          ],
          "internalType": "struct SupplyChain.Product[]",
          "name": "",
          "type": "tuple[]"
        }
      ],
      "stateMutability": "view",
      "type": "function",
      "constant": true
    }
  ],
  "bytecode": "0x608060405234801561001057600080fd5b5033600260006101000a81548173ffffffffffffffffffffffffffffffffffffffff021916908373ffffffffffffffffffffffffffffffffffffffff16021790555061588b80620000626000396000f3fe608060405234801561001057600080fd5b5060043610610119576000357c0100000000000000000000000000000000000000000000000000000000900480630ff4e2b41461011e578063180b46d41461013c57806329507f731461015a57806334d65efd146101765780633a9d23d3146101a6578063524e8462146101c2578063525d45e2146101f257806357a096a1146102105780635ff3cd9414610240578063700bd66e1461025e578063781f0b721461027a5780637acc0b2014610296578063b9db15b4146102cd578063ba2255f414610304578063bab5933a14610320578063c05806991461033e578063c743ecca1461036e578063ce606ee01461038a578063dde1bbcf146103a8578063e983372b146103d8575b600080fd5b6101266103f6565b604051610133919061498b565b60405180910390f35b6101446108b5565b604051610151919061498b565b60405180910390f35b610174600480360381019061016f9190614a0f565b611102565b005b610190600480360381019061018b9190614a4f565b61135f565b60405161019d9190614a8b565b60405180910390f35b6101c060048036038101906101bb9190614a4f565b61137f565b005b6101dc60048036038101906101d79190614aa6565b6114c2565b6040516101e99190614a8b565b60405180910390f35b6101fa6114ef565b604051610207919061498b565b60405180910390f35b61022a60048036038101906102259190614aa6565b611a64565b6040516102379190614b82565b60405180910390f35b610248611b10565b604051610255919061498b565b60405180910390f35b61027860048036038101906102739190614c09565b61235d565b005b610294600480360381019061028f9190614cf7565b6127b5565b005b6102b060048036038101906102ab9190614aa6565b6128da565b6040516102c4989796959493929190614de2565b60405180910390f35b6102e760048036038101906102e29190614aa6565b612b14565b6040516102fb989796959493929190614e75565b60405180910390f35b61031e60048036038101906103199190614aa6565b612e4b565b005b61032861302a565b604051610335919061498b565b60405180910390f35b61035860048036038101906103539190614a4f565b613c68565b6040516103659190614a8b565b60405180910390f35b61038860048036038101906103839190614a4f565b613c88565b005b610392613d73565b60405161039f9190614f08565b60405180910390f35b6103c260048036038101906103bd9190614aa6565b613d99565b6040516103cf9190614f23565b60405180910390f35b6103e0613dbd565b6040516103ed919061498b565b60405180910390f35b60606000805b600080549050811015610497576000600481111561041d5761041c614715565b5b6001600080848154811061043457610433614f3e565b5b9060005260206000200154815260200190815260200160002060020160149054906101000a900460ff1660048111156104705761046f614715565b5b0361048457818061048090614f9c565b9250505b808061048f90614f9c565b9150506103fc565b5060008167ffffffffffffffff8111156104b4576104b3614fe4565b5b6040519080825280602002602001820160405280156104ed57816020015b6104da61460a565b8152602001906001900390816104d25790505b5090506000805b6000805490508110156108ab576000600481111561051557610514614715565b5b6001600080848154811061052c5761052b614f3e565b5b9060005260206000200154815260200190815260200160002060020160149054906101000a900460ff16600481111561056857610567614715565b5b03610898576001600080838154811061058457610583614f3e565b5b9060005260206000200154815260200190815260200160002060405180610100016040529081600082015481526020016001820160009054906101000a900473ffffffffffffffffffffffffffffffffffffffff1673ffffffffffffffffffffffffffffffffffffffff1673ffffffffffffffffffffffffffffffffffffffff1681526020016002820160009054906101000a900473ffffffffffffffffffffffffffffffffffffffff1673ffffffffffffffffffffffffffffffffffffffff1673ffffffffffffffffffffffffffffffffffffffff1681526020016002820160149054906101000a900460ff16600481111561068457610683614715565b5b600481111561069657610695614715565b5b81526020016002820160159054906101000a900460ff161515151581526020016003820180546106c590615042565b80601f01602080910402602001604051908101604052809291908181526020018280546106f190615042565b801561073e5780601f106107135761010080835404028352916020019161073e565b820191906000526020600020905b81548152906001019060200180831161072157829003601f168201915b5050505050815260200160048201805461075790615042565b80601f016020809104026020016040519081016040528092919081815260200182805461078390615042565b80156107d05780601f106107a5576101008083540402835291602001916107d0565b820191906000526020600020905b8154815290600101906020018083116107b357829003601f168201915b505050505081526020016005820180546107e990615042565b80601f016020809104026020016040519081016040528092919081815260200182805461081590615042565b80156108625780601f1061083757610100808354040283529160200191610862565b820191906000526020600020905b81548152906001019060200180831161084557829003601f168201915b50505050508152505083838151811061087e5761087d614f3e565b5b6020026020010181905250818061089490614f9c565b9250505b80806108a390614f9c565b9150506104f4565b5081935050505090565b60606000600560003373ffffffffffffffffffffffffffffffffffffffff1673ffffffffffffffffffffffffffffffffffffffff16815260200190815260200160002080548060200260200160405190810160405280929190818152602001828054801561094257602002820191906000526020600020905b81548152602001906001019080831161092e575b505050505090506000805b8251811015610ce45760006001600085848151811061096f5761096e614f3e565b5b6020026020010151815260200190815260200160002060405180610100016040529081600082015481526020016001820160009054906101000a900473ffffffffffffffffffffffffffffffffffffffff1673ffffffffffffffffffffffffffffffffffffffff1673ffffffffffffffffffffffffffffffffffffffff1681526020016002820160009054906101000a900473ffffffffffffffffffffffffffffffffffffffff1673ffffffffffffffffffffffffffffffffffffffff1673ffffffffffffffffffffffffffffffffffffffff1681526020016002820160149054906101000a900460ff166004811115610a6c57610a6b614715565b5b6004811115610a7e57610a7d614715565b5b81526020016002820160159054906101000a900460ff16151515158152602001600382018054610aad90615042565b80601f0160208091040260200160405190810160405280929190818152602001828054610ad990615042565b8015610b265780601f10610afb57610100808354040283529160200191610b26565b820191906000526020600020905b815481529060010190602001808311610b0957829003601f168201915b50505050508152602001600482018054610b3f90615042565b80601f0160208091040260200160405190810160405280929190818152602001828054610b6b90615042565b8015610bb85780601f10610b8d57610100808354040283529160200191610bb8565b820191906000526020600020905b815481529060010190602001808311610b9b57829003601f168201915b50505050508152602001600582018054610bd190615042565b80601f0160208091040260200160405190810160405280929190818152602001828054610bfd90615042565b8015610c4a5780601f10610c1f57610100808354040283529160200191610c4a565b820191906000526020600020905b815481529060010190602001808311610c2d57829003601f168201915b50505050508152505090503373ffffffffffffffffffffffffffffffffffffffff16816020015173ffffffffffffffffffffffffffffffffffffffff16148015610cbc575060036004811115610ca357610ca2614715565b5b81606001516004811115610cba57610cb9614715565b5b145b15610cd0578280610ccc90614f9c565b9350505b508080610cdc90614f9c565b91505061094d565b5060008167ffffffffffffffff811115610d0157610d00614fe4565b5b604051908082528060200260200182016040528015610d3a57816020015b610d2761460a565b815260200190600190039081610d1f5790505b5090506000805b84518110156110f757600060016000878481518110610d6357610d62614f3e565b5b6020026020010151815260200190815260200160002060405180610100016040529081600082015481526020016001820160009054906101000a900473ffffffffffffffffffffffffffffffffffffffff1673ffffffffffffffffffffffffffffffffffffffff1673ffffffffffffffffffffffffffffffffffffffff1681526020016002820160009054906101000a900473ffffffffffffffffffffffffffffffffffffffff1673ffffffffffffffffffffffffffffffffffffffff1673ffffffffffffffffffffffffffffffffffffffff1681526020016002820160149054906101000a900460ff166004811115610e6057610e5f614715565b5b6004811115610e7257610e71614715565b5b81526020016002820160159054906101000a900460ff16151515158152602001600382018054610ea190615042565b80601f0160208091040260200160405190810160405280929190818152602001828054610ecd90615042565b8015610f1a5780601f10610eef57610100808354040283529160200191610f1a565b820191906000526020600020905b815481529060010190602001808311610efd57829003601f168201915b50505050508152602001600482018054610f3390615042565b80601f0160208091040260200160405190810160405280929190818152602001828054610f5f90615042565b8015610fac5780601f10610f8157610100808354040283529160200191610fac565b820191906000526020600020905b815481529060010190602001808311610f8f57829003601f168201915b50505050508152602001600582018054610fc590615042565b80601f0160208091040260200160405190810160405280929190818152602001828054610ff190615042565b801561103e5780601f106110135761010080835404028352916020019161103e565b820191906000526020600020905b81548152906001019060200180831161102157829003601f168201915b50505050508152505090503373ffffffffffffffffffffffffffffffffffffffff16816020015173ffffffffffffffffffffffffffffffffffffffff161480156110b057506003600481111561109757611096614715565b5b816060015160048111156110ae576110ad614715565b5b145b156110e357808484815181106110c9576110c8614f3e565b5b602002602001018190525082806110df90614f9c565b9350505b5080806110ef90614f9c565b915050610d41565b508194505050505090565b3373ffffffffffffffffffffffffffffffffffffffff166001600084815260200190815260200160002060010160009054906101000a900473ffffffffffffffffffffffffffffffffffffffff1673ffffffffffffffffffffffffffffffffffffffff16146111a6576040517f08c379a000000000000000000000000000000000000000000000000000000000815260040161119d906150e5565b60405180910390fd5b60006001600084815260200190815260200160002060000154036111ff576040517f08c379a00000000000000000000000000000000000000000000000000000000081526004016111f690615151565b60405180910390fd5b60006001600084815260200190815260200160002060010160009054906101000a900473ffffffffffffffffffffffffffffffffffffffff169050816001600085815260200190815260200160002060010160006101000a81548173ffffffffffffffffffffffffffffffffffffffff021916908373ffffffffffffffffffffffffffffffffffffffff160217905550600560008373ffffffffffffffffffffffffffffffffffffffff1673ffffffffffffffffffffffffffffffffffffffff1681526020019081526020016000208390806001815401808255809150506001900390600052602060002001600090919091909150558173ffffffffffffffffffffffffffffffffffffffff168173ffffffffffffffffffffffffffffffffffffffff167f16b85f49bf01212961345d3016c9a531894accf62eb7680f2045d79185cc0ec0856040516113529190614f23565b60405180910390a3505050565b60046020528060005260406000206000915054906101000a900460ff1681565b600260009054906101000a900473ffffffffffffffffffffffffffffffffffffffff1673ffffffffffffffffffffffffffffffffffffffff163373ffffffffffffffffffffffffffffffffffffffff161461140f576040517f08c379a0000000000000000000000000000000000000000000000000000000008152600401611406906151e3565b60405180910390fd5b6001600360008373ffffffffffffffffffffffffffffffffffffffff1673ffffffffffffffffffffffffffffffffffffffff16815260200190815260200160002060006101000a81548160ff0219169083151502179055506001600460008373ffffffffffffffffffffffffffffffffffffffff1673ffffffffffffffffffffffffffffffffffffffff16815260200190815260200160002060006101000a81548160ff02191690831515021790555050565b60006001600083815260200190815260200160002060020160159054906101000a900460ff169050919050565b60606000600560003373ffffffffffffffffffffffffffffffffffffffff1673ffffffffffffffffffffffffffffffffffffffff16815260200190815260200160002080548060200260200160405190810160405280929190818152602001828054801561157c57602002820191906000526020600020905b815481526020019060010190808311611568575b505050505090506000805b8251811015611635573373ffffffffffffffffffffffffffffffffffffffff16600160008584815181106115be576115bd614f3e565b5b6020026020010151815260200190815260200160002060010160009054906101000a900473ffffffffffffffffffffffffffffffffffffffff1673ffffffffffffffffffffffffffffffffffffffff160361162257818061161e90614f9c565b9250505b808061162d90614f9c565b915050611587565b5060008167ffffffffffffffff81111561165257611651614fe4565b5b60405190808252806020026020018201604052801561168b57816020015b61167861460a565b8152602001906001900390816116705790505b5090506000805b8451811015611a59573373ffffffffffffffffffffffffffffffffffffffff16600160008784815181106116c9576116c8614f3e565b5b6020026020010151815260200190815260200160002060010160009054906101000a900473ffffffffffffffffffffffffffffffffffffffff1673ffffffffffffffffffffffffffffffffffffffff1603611a46576001600086838151811061173557611734614f3e565b5b6020026020010151815260200190815260200160002060405180610100016040529081600082015481526020016001820160009054906101000a900473ffffffffffffffffffffffffffffffffffffffff1673ffffffffffffffffffffffffffffffffffffffff1673ffffffffffffffffffffffffffffffffffffffff1681526020016002820160009054906101000a900473ffffffffffffffffffffffffffffffffffffffff1673ffffffffffffffffffffffffffffffffffffffff1673ffffffffffffffffffffffffffffffffffffffff1681526020016002820160149054906101000a900460ff16600481111561183257611831614715565b5b600481111561184457611843614715565b5b81526020016002820160159054906101000a900460ff1615151515815260200160038201805461187390615042565b80601f016020809104026020016040519081016040528092919081815260200182805461189f90615042565b80156118ec5780601f106118c1576101008083540402835291602001916118ec565b820191906000526020600020905b8154815290600101906020018083116118cf57829003601f168201915b5050505050815260200160048201805461190590615042565b80601f016020809104026020016040519081016040528092919081815260200182805461193190615042565b801561197e5780601f106119535761010080835404028352916020019161197e565b820191906000526020600020905b81548152906001019060200180831161196157829003601f168201915b5050505050815260200160058201805461199790615042565b80601f01602080910402602001604051908101604052809291908181526020018280546119c390615042565b8015611a105780601f106119e557610100808354040283529160200191611a10565b820191906000526020600020905b8154815290600101906020018083116119f357829003601f168201915b505050505081525050838381518110611a2c57611a2b614f3e565b5b60200260200101819052508180611a4290614f9c565b9250505b8080611a5190614f9c565b915050611692565b508194505050505090565b60606000600160008481526020019081526020016000206000015403611abf576040517f08c379a0000000000000000000000000000000000000000000000000000000008152600401611ab69061524f565b60405180910390fd5b600067ffffffffffffffff811115611ada57611ad9614fe4565b5b604051908082528060200260200182016040528015611b085781602001602082028036833780820191505090505b509050919050565b60606000600560003373ffffffffffffffffffffffffffffffffffffffff1673ffffffffffffffffffffffffffffffffffffffff168152602001908152602001600020805480602002602001604051908101604052809291908181526020018280548015611b9d57602002820191906000526020600020905b815481526020019060010190808311611b89575b505050505090506000805b8251811015611f3f57600060016000858481518110611bca57611bc9614f3e565b5b6020026020010151815260200190815260200160002060405180610100016040529081600082015481526020016001820160009054906101000a900473ffffffffffffffffffffffffffffffffffffffff1673ffffffffffffffffffffffffffffffffffffffff1673ffffffffffffffffffffffffffffffffffffffff1681526020016002820160009054906101000a900473ffffffffffffffffffffffffffffffffffffffff1673ffffffffffffffffffffffffffffffffffffffff1673ffffffffffffffffffffffffffffffffffffffff1681526020016002820160149054906101000a900460ff166004811115611cc757611cc6614715565b5b6004811115611cd957611cd8614715565b5b81526020016002820160159054906101000a900460ff16151515158152602001600382018054611d0890615042565b80601f0160208091040260200160405190810160405280929190818152602001828054611d3490615042565b8015611d815780601f10611d5657610100808354040283529160200191611d81565b820191906000526020600020905b815481529060010190602001808311611d6457829003601f168201915b50505050508152602001600482018054611d9a90615042565b80601f0160208091040260200160405190810160405280929190818152602001828054611dc690615042565b8015611e135780601f10611de857610100808354040283529160200191611e13565b820191906000526020600020905b815481529060010190602001808311611df657829003601f168201915b50505050508152602001600582018054611e2c90615042565b80601f0160208091040260200160405190810160405280929190818152602001828054611e5890615042565b8015611ea55780601f10611e7a57610100808354040283529160200191611ea5565b820191906000526020600020905b815481529060010190602001808311611e8857829003601f168201915b5050505050815250509050600480811115611ec357611ec2614715565b5b81606001516004811115611eda57611ed9614715565b5b148015611f1757503373ffffffffffffffffffffffffffffffffffffffff16816020015173ffffffffffffffffffffffffffffffffffffffff1614155b15611f2b578280611f2790614f9c565b9350505b508080611f3790614f9c565b915050611ba8565b5060008167ffffffffffffffff811115611f5c57611f5b614fe4565b5b604051908082528060200260200182016040528015611f9557816020015b611f8261460a565b815260200190600190039081611f7a5790505b5090506000805b845181101561235257600060016000878481518110611fbe57611fbd614f3e565b5b6020026020010151815260200190815260200160002060405180610100016040529081600082015481526020016001820160009054906101000a900473ffffffffffffffffffffffffffffffffffffffff1673ffffffffffffffffffffffffffffffffffffffff1673ffffffffffffffffffffffffffffffffffffffff1681526020016002820160009054906101000a900473ffffffffffffffffffffffffffffffffffffffff1673ffffffffffffffffffffffffffffffffffffffff1673ffffffffffffffffffffffffffffffffffffffff1681526020016002820160149054906101000a900460ff1660048111156120bb576120ba614715565b5b60048111156120cd576120cc614715565b5b81526020016002820160159054906101000a900460ff161515151581526020016003820180546120fc90615042565b80601f016020809104026020016040519081016040528092919081815260200182805461212890615042565b80156121755780601f1061214a57610100808354040283529160200191612175565b820191906000526020600020905b81548152906001019060200180831161215857829003601f168201915b5050505050815260200160048201805461218e90615042565b80601f01602080910402602001604051908101604052809291908181526020018280546121ba90615042565b80156122075780601f106121dc57610100808354040283529160200191612207565b820191906000526020600020905b8154815290600101906020018083116121ea57829003601f168201915b5050505050815260200160058201805461222090615042565b80601f016020809104026020016040519081016040528092919081815260200182805461224c90615042565b80156122995780601f1061226e57610100808354040283529160200191612299565b820191906000526020600020905b81548152906001019060200180831161227c57829003601f168201915b50505050508152505090506004808111156122b7576122b6614715565b5b816060015160048111156122ce576122cd614715565b5b14801561230b57503373ffffffffffffffffffffffffffffffffffffffff16816020015173ffffffffffffffffffffffffffffffffffffffff1614155b1561233e578084848151811061232457612323614f3e565b5b6020026020010181905250828061233a90614f9c565b9350505b50808061234a90614f9c565b915050611f9c565b508194505050505090565b600360003373ffffffffffffffffffffffffffffffffffffffff1673ffffffffffffffffffffffffffffffffffffffff16815260200190815260200160002060009054906101000a900460ff166123e9576040517f08c379a00000000000000000000000000000000000000000000000000000000081526004016123e0906152e1565b60405180910390fd5b6000600160008981526020019081526020016000206000015414612442576040517f08c379a000000000000000000000000000000000000000000000000000000000815260040161243990615373565b60405180910390fd5b6040518061010001604052808881526020013373ffffffffffffffffffffffffffffffffffffffff168152602001600073ffffffffffffffffffffffffffffffffffffffff168152602001600060048111156124a1576124a0614715565b5b815260200160011515815260200187878080601f016020809104026020016040519081016040528093929190818152602001838380828437600081840152601f19601f82011690508083019250505050505050815260200185858080601f016020809104026020016040519081016040528093929190818152602001838380828437600081840152601f19601f82011690508083019250505050505050815260200183838080601f016020809104026020016040519081016040528093929190818152602001838380828437600081840152601f19601f82011690508083019250505050505050815250600160008981526020019081526020016000206000820151816000015560208201518160010160006101000a81548173ffffffffffffffffffffffffffffffffffffffff021916908373ffffffffffffffffffffffffffffffffffffffff16021790555060408201518160020160006101000a81548173ffffffffffffffffffffffffffffffffffffffff021916908373ffffffffffffffffffffffffffffffffffffffff16021790555060608201518160020160146101000a81548160ff0219169083600481111561266157612660614715565b5b021790555060808201518160020160156101000a81548160ff02191690831515021790555060a082015181600301908161269b9190615545565b5060c08201518160040190816126b19190615545565b5060e08201518160050190816126c79190615545565b509050506000879080600181540180825580915050600190039060005260206000200160009091909190915055600560003373ffffffffffffffffffffffffffffffffffffffff1673ffffffffffffffffffffffffffffffffffffffff1681526020019081526020016000208790806001815401808255809150506001900390600052602060002001600090919091909150553373ffffffffffffffffffffffffffffffffffffffff167fd810998a0248808a33b20218e71759cb2ec1a182b398350ad606d742587c012c8888886040516127a493929190615653565b60405180910390a250505050505050565b3373ffffffffffffffffffffffffffffffffffffffff166001600086815260200190815260200160002060010160009054906101000a900473ffffffffffffffffffffffffffffffffffffffff1673ffffffffffffffffffffffffffffffffffffffff1614612859576040517f08c379a0000000000000000000000000000000000000000000000000000000008152600401612850906156f7565b60405180910390fd5b826001600086815260200190815260200160002060020160146101000a81548160ff0219169083600481111561289257612891614715565b5b02179055507fc5c93ed2fd64a070646b08af8189ccc62bc86626a2d2f627fca964d44156143c848484846040516128cc9493929190615717565b60405180910390a150505050565b60016020528060005260406000206000915090508060000154908060010160009054906101000a900473ffffffffffffffffffffffffffffffffffffffff16908060020160009054906101000a900473ffffffffffffffffffffffffffffffffffffffff16908060020160149054906101000a900460ff16908060020160159054906101000a900460ff169080600301805461297590615042565b80601f01602080910402602001604051908101604052809291908181526020018280546129a190615042565b80156129ee5780601f106129c3576101008083540402835291602001916129ee565b820191906000526020600020905b8154815290600101906020018083116129d157829003601f168201915b505050505090806004018054612a0390615042565b80601f0160208091040260200160405190810160405280929190818152602001828054612a2f90615042565b8015612a7c5780601f10612a5157610100808354040283529160200191612a7c565b820191906000526020600020905b815481529060010190602001808311612a5f57829003601f168201915b505050505090806005018054612a9190615042565b80601f0160208091040260200160405190810160405280929190818152602001828054612abd90615042565b8015612b0a5780601f10612adf57610100808354040283529160200191612b0a565b820191906000526020600020905b815481529060010190602001808311612aed57829003601f168201915b5050505050905088565b60006060600060606000806060600080600160008b815260200190815260200160002060405180610100016040529081600082015481526020016001820160009054906101000a900473ffffffffffffffffffffffffffffffffffffffff1673ffffffffffffffffffffffffffffffffffffffff1673ffffffffffffffffffffffffffffffffffffffff1681526020016002820160009054906101000a900473ffffffffffffffffffffffffffffffffffffffff1673ffffffffffffffffffffffffffffffffffffffff1673ffffffffffffffffffffffffffffffffffffffff1681526020016002820160149054906101000a900460ff166004811115612c1e57612c1d614715565b5b6004811115612c3057612c2f614715565b5b81526020016002820160159054906101000a900460ff16151515158152602001600382018054612c5f90615042565b80601f0160208091040260200160405190810160405280929190818152602001828054612c8b90615042565b8015612cd85780601f10612cad57610100808354040283529160200191612cd8565b820191906000526020600020905b815481529060010190602001808311612cbb57829003601f168201915b50505050508152602001600482018054612cf190615042565b80601f0160208091040260200160405190810160405280929190818152602001828054612d1d90615042565b8015612d6a5780601f10612d3f57610100808354040283529160200191612d6a565b820191906000526020600020905b815481529060010190602001808311612d4d57829003601f168201915b50505050508152602001600582018054612d8390615042565b80601f0160208091040260200160405190810160405280929190818152602001828054612daf90615042565b8015612dfc5780601f10612dd157610100808354040283529160200191612dfc565b820191906000526020600020905b815481529060010190602001808311612ddf57829003601f168201915b505050505081525050905080600001518160a0015182602001518360c00151846080015185606001518660e0015187604001519850985098509850985098509850985050919395975091939597565b6000600160008381526020019081526020016000206000015403612ea4576040517f08c379a0000000000000000000000000000000000000000000000000000000008152600401612e9b906157a3565b60405180910390fd5b60006004811115612eb857612eb7614715565b5b6001600083815260200190815260200160002060020160149054906101000a900460ff166004811115612eee57612eed614715565b5b14612f2e576040517f08c379a0000000000000000000000000000000000000000000000000000000008152600401612f2590615835565b60405180910390fd5b600180600083815260200190815260200160002060020160146101000a81548160ff02191690836004811115612f6757612f66614715565b5b0217905550336001600083815260200190815260200160002060020160006101000a81548173ffffffffffffffffffffffffffffffffffffffff021916908373ffffffffffffffffffffffffffffffffffffffff160217905550600660003373ffffffffffffffffffffffffffffffffffffffff1673ffffffffffffffffffffffffffffffffffffffff16815260200190815260200160002081908060018154018082558091505060019003906000526020600020016000909190919091505550565b60606000600660003373ffffffffffffffffffffffffffffffffffffffff1673ffffffffffffffffffffffffffffffffffffffff1681526020019081526020016000208054806020026020016040519081016040528092919081815260200182805480156130b757602002820191906000526020600020905b8154815260200190600101908083116130a3575b505050505090506000815190506000600560003373ffffffffffffffffffffffffffffffffffffffff1673ffffffffffffffffffffffffffffffffffffffff16815260200190815260200160002080548060200260200160405190810160405280929190818152602001828054801561314f57602002820191906000526020600020905b81548152602001906001019080831161313b575b5050505050905060005b81518110156134f95760006001600084848151811061317b5761317a614f3e565b5b6020026020010151815260200190815260200160002060405180610100016040529081600082015481526020016001820160009054906101000a900473ffffffffffffffffffffffffffffffffffffffff1673ffffffffffffffffffffffffffffffffffffffff1673ffffffffffffffffffffffffffffffffffffffff1681526020016002820160009054906101000a900473ffffffffffffffffffffffffffffffffffffffff1673ffffffffffffffffffffffffffffffffffffffff1673ffffffffffffffffffffffffffffffffffffffff1681526020016002820160149054906101000a900460ff16600481111561327857613277614715565b5b600481111561328a57613289614715565b5b81526020016002820160159054906101000a900460ff161515151581526020016003820180546132b990615042565b80601f01602080910402602001604051908101604052809291908181526020018280546132e590615042565b80156133325780601f1061330757610100808354040283529160200191613332565b820191906000526020600020905b81548152906001019060200180831161331557829003601f168201915b5050505050815260200160048201805461334b90615042565b80601f016020809104026020016040519081016040528092919081815260200182805461337790615042565b80156133c45780601f10613399576101008083540402835291602001916133c4565b820191906000526020600020905b8154815290600101906020018083116133a757829003601f168201915b505050505081526020016005820180546133dd90615042565b80601f016020809104026020016040519081016040528092919081815260200182805461340990615042565b80156134565780601f1061342b57610100808354040283529160200191613456565b820191906000526020600020905b81548152906001019060200180831161343957829003601f168201915b50505050508152505090503373ffffffffffffffffffffffffffffffffffffffff16816020015173ffffffffffffffffffffffffffffffffffffffff161480156134d15750600073ffffffffffffffffffffffffffffffffffffffff16816040015173ffffffffffffffffffffffffffffffffffffffff1614155b156134e55783806134e190614f9c565b9450505b5080806134f190614f9c565b915050613159565b5060008267ffffffffffffffff81111561351657613515614fe4565b5b60405190808252806020026020018201604052801561354f57816020015b61353c61460a565b8152602001906001900390816135345790505b5090506000805b8551811015613899576001600087838151811061357657613575614f3e565b5b6020026020010151815260200190815260200160002060405180610100016040529081600082015481526020016001820160009054906101000a900473ffffffffffffffffffffffffffffffffffffffff1673ffffffffffffffffffffffffffffffffffffffff1673ffffffffffffffffffffffffffffffffffffffff1681526020016002820160009054906101000a900473ffffffffffffffffffffffffffffffffffffffff1673ffffffffffffffffffffffffffffffffffffffff1673ffffffffffffffffffffffffffffffffffffffff1681526020016002820160149054906101000a900460ff16600481111561367357613672614715565b5b600481111561368557613684614715565b5b81526020016002820160159054906101000a900460ff161515151581526020016003820180546136b490615042565b80601f01602080910402602001604051908101604052809291908181526020018280546136e090615042565b801561372d5780601f106137025761010080835404028352916020019161372d565b820191906000526020600020905b81548152906001019060200180831161371057829003601f168201915b5050505050815260200160048201805461374690615042565b80601f016020809104026020016040519081016040528092919081815260200182805461377290615042565b80156137bf5780601f10613794576101008083540402835291602001916137bf565b820191906000526020600020905b8154815290600101906020018083116137a257829003601f168201915b505050505081526020016005820180546137d890615042565b80601f016020809104026020016040519081016040528092919081815260200182805461380490615042565b80156138515780601f1061382657610100808354040283529160200191613851565b820191906000526020600020905b81548152906001019060200180831161383457829003601f168201915b50505050508152505083838151811061386d5761386c614f3e565b5b6020026020010181905250818061388390614f9c565b925050808061389190614f9c565b915050613556565b5060005b8351811015613c5c576000600160008684815181106138bf576138be614f3e565b5b6020026020010151815260200190815260200160002060405180610100016040529081600082015481526020016001820160009054906101000a900473ffffffffffffffffffffffffffffffffffffffff1673ffffffffffffffffffffffffffffffffffffffff1673ffffffffffffffffffffffffffffffffffffffff1681526020016002820160009054906101000a900473ffffffffffffffffffffffffffffffffffffffff1673ffffffffffffffffffffffffffffffffffffffff1673ffffffffffffffffffffffffffffffffffffffff1681526020016002820160149054906101000a900460ff1660048111156139bc576139bb614715565b5b60048111156139ce576139cd614715565b5b81526020016002820160159054906101000a900460ff161515151581526020016003820180546139fd90615042565b80601f0160208091040260200160405190810160405280929190818152602001828054613a2990615042565b8015613a765780601f10613a4b57610100808354040283529160200191613a76565b820191906000526020600020905b815481529060010190602001808311613a5957829003601f168201915b50505050508152602001600482018054613a8f90615042565b80601f0160208091040260200160405190810160405280929190818152602001828054613abb90615042565b8015613b085780601f10613add57610100808354040283529160200191613b08565b820191906000526020600020905b815481529060010190602001808311613aeb57829003601f168201915b50505050508152602001600582018054613b2190615042565b80601f0160208091040260200160405190810160405280929190818152602001828054613b4d90615042565b8015613b9a5780601f10613b6f57610100808354040283529160200191613b9a565b820191906000526020600020905b815481529060010190602001808311613b7d57829003601f168201915b50505050508152505090503373ffffffffffffffffffffffffffffffffffffffff16816020015173ffffffffffffffffffffffffffffffffffffffff16148015613c155750600073ffffffffffffffffffffffffffffffffffffffff16816040015173ffffffffffffffffffffffffffffffffffffffff1614155b15613c485780848481518110613c2e57613c2d614f3e565b5b60200260200101819052508280613c4490614f9c565b9350505b508080613c5490614f9c565b91505061389d565b50819550505050505090565b60036020528060005260406000206000915054906101000a900460ff1681565b600260009054906101000a900473ffffffffffffffffffffffffffffffffffffffff1673ffffffffffffffffffffffffffffffffffffffff163373ffffffffffffffffffffffffffffffffffffffff1614613d18576040517f08c379a0000000000000000000000000000000000000000000000000000000008152600401613d0f906151e3565b60405180910390fd5b6001600460008373ffffffffffffffffffffffffffffffffffffffff1673ffffffffffffffffffffffffffffffffffffffff16815260200190815260200160002060006101000a81548160ff02191690831515021790555050565b600260009054906101000a900473ffffffffffffffffffffffffffffffffffffffff1681565b60008181548110613da957600080fd5b906000526020600020016000915090505481565b60606000600560003373ffffffffffffffffffffffffffffffffffffffff1673ffffffffffffffffffffffffffffffffffffffff168152602001908152602001600020805480602002602001604051908101604052809291908181526020018280548015613e4a57602002820191906000526020600020905b815481526020019060010190808311613e36575b505050505090506000805b82518110156141ec57600060016000858481518110613e7757613e76614f3e565b5b6020026020010151815260200190815260200160002060405180610100016040529081600082015481526020016001820160009054906101000a900473ffffffffffffffffffffffffffffffffffffffff1673ffffffffffffffffffffffffffffffffffffffff1673ffffffffffffffffffffffffffffffffffffffff1681526020016002820160009054906101000a900473ffffffffffffffffffffffffffffffffffffffff1673ffffffffffffffffffffffffffffffffffffffff1673ffffffffffffffffffffffffffffffffffffffff1681526020016002820160149054906101000a900460ff166004811115613f7457613f73614715565b5b6004811115613f8657613f85614715565b5b81526020016002820160159054906101000a900460ff16151515158152602001600382018054613fb590615042565b80601f0160208091040260200160405190810160405280929190818152602001828054613fe190615042565b801561402e5780601f106140035761010080835404028352916020019161402e565b820191906000526020600020905b81548152906001019060200180831161401157829003601f168201915b5050505050815260200160048201805461404790615042565b80601f016020809104026020016040519081016040528092919081815260200182805461407390615042565b80156140c05780601f10614095576101008083540402835291602001916140c0565b820191906000526020600020905b8154815290600101906020018083116140a357829003601f168201915b505050505081526020016005820180546140d990615042565b80601f016020809104026020016040519081016040528092919081815260200182805461410590615042565b80156141525780601f1061412757610100808354040283529160200191614152565b820191906000526020600020905b81548152906001019060200180831161413557829003601f168201915b50505050508152505090503373ffffffffffffffffffffffffffffffffffffffff16816020015173ffffffffffffffffffffffffffffffffffffffff161480156141c45750600260048111156141ab576141aa614715565b5b816060015160048111156141c2576141c1614715565b5b145b156141d85782806141d490614f9c565b9350505b5080806141e490614f9c565b915050613e55565b5060008167ffffffffffffffff81111561420957614208614fe4565b5b60405190808252806020026020018201604052801561424257816020015b61422f61460a565b8152602001906001900390816142275790505b5090506000805b84518110156145ff5760006001600087848151811061426b5761426a614f3e565b5b6020026020010151815260200190815260200160002060405180610100016040529081600082015481526020016001820160009054906101000a900473ffffffffffffffffffffffffffffffffffffffff1673ffffffffffffffffffffffffffffffffffffffff1673ffffffffffffffffffffffffffffffffffffffff1681526020016002820160009054906101000a900473ffffffffffffffffffffffffffffffffffffffff1673ffffffffffffffffffffffffffffffffffffffff1673ffffffffffffffffffffffffffffffffffffffff1681526020016002820160149054906101000a900460ff16600481111561436857614367614715565b5b600481111561437a57614379614715565b5b81526020016002820160159054906101000a900460ff161515151581526020016003820180546143a990615042565b80601f01602080910402602001604051908101604052809291908181526020018280546143d590615042565b80156144225780601f106143f757610100808354040283529160200191614422565b820191906000526020600020905b81548152906001019060200180831161440557829003601f168201915b5050505050815260200160048201805461443b90615042565b80601f016020809104026020016040519081016040528092919081815260200182805461446790615042565b80156144b45780601f10614489576101008083540402835291602001916144b4565b820191906000526020600020905b81548152906001019060200180831161449757829003601f168201915b505050505081526020016005820180546144cd90615042565b80601f01602080910402602001604051908101604052809291908181526020018280546144f990615042565b80156145465780601f1061451b57610100808354040283529160200191614546565b820191906000526020600020905b81548152906001019060200180831161452957829003601f168201915b50505050508152505090503373ffffffffffffffffffffffffffffffffffffffff16816020015173ffffffffffffffffffffffffffffffffffffffff161480156145b857506002600481111561459f5761459e614715565b5b816060015160048111156145b6576145b5614715565b5b145b156145eb57808484815181106145d1576145d0614f3e565b5b602002602001018190525082806145e790614f9c565b9350505b5080806145f790614f9c565b915050614249565b508194505050505090565b60405180610100016040528060008152602001600073ffffffffffffffffffffffffffffffffffffffff168152602001600073ffffffffffffffffffffffffffffffffffffffff1681526020016000600481111561466b5761466a614715565b5b81526020016000151581526020016060815260200160608152602001606081525090565b600081519050919050565b600082825260208201905092915050565b6000819050602082019050919050565b6000819050919050565b6146ce816146bb565b82525050565b600073ffffffffffffffffffffffffffffffffffffffff82169050919050565b60006146ff826146d4565b9050919050565b61470f816146f4565b82525050565b7f4e487b7100000000000000000000000000000000000000000000000000000000600052602160045260246000fd5b6005811061475557614754614715565b5b50565b600081905061476682614744565b919050565b600061477682614758565b9050919050565b6147868161476b565b82525050565b60008115159050919050565b6147a18161478c565b82525050565b600081519050919050565b600082825260208201905092915050565b60005b838110156147e15780820151818401526020810190506147c6565b60008484015250505050565b6000601f19601f8301169050919050565b6000614809826147a7565b61481381856147b2565b93506148238185602086016147c3565b61482c816147ed565b840191505092915050565b60006101008301600083015161485060008601826146c5565b5060208301516148636020860182614706565b5060408301516148766040860182614706565b506060830151614889606086018261477d565b50608083015161489c6080860182614798565b5060a083015184820360a08601526148b482826147fe565b91505060c083015184820360c08601526148ce82826147fe565b91505060e083015184820360e08601526148e882826147fe565b9150508091505092915050565b60006149018383614837565b905092915050565b6000602082019050919050565b60006149218261468f565b61492b818561469a565b93508360208202850161493d856146ab565b8060005b85811015614979578484038952815161495a85826148f5565b945061496583614909565b925060208a01995050600181019050614941565b50829750879550505050505092915050565b600060208201905081810360008301526149a58184614916565b905092915050565b600080fd5b600080fd5b6149c0816146bb565b81146149cb57600080fd5b50565b6000813590506149dd816149b7565b92915050565b6149ec816146f4565b81146149f757600080fd5b50565b600081359050614a09816149e3565b92915050565b60008060408385031215614a2657614a256149ad565b5b6000614a34858286016149ce565b9250506020614a45858286016149fa565b9150509250929050565b600060208284031215614a6557614a646149ad565b5b6000614a73848285016149fa565b91505092915050565b614a858161478c565b82525050565b6000602082019050614aa06000830184614a7c565b92915050565b600060208284031215614abc57614abb6149ad565b5b6000614aca848285016149ce565b91505092915050565b600081519050919050565b600082825260208201905092915050565b6000819050602082019050919050565b6000614b0b8383614706565b60208301905092915050565b6000602082019050919050565b6000614b2f82614ad3565b614b398185614ade565b9350614b4483614aef565b8060005b83811015614b75578151614b5c8882614aff565b9750614b6783614b17565b925050600181019050614b48565b5085935050505092915050565b60006020820190508181036000830152614b9c8184614b24565b905092915050565b600080fd5b600080fd5b600080fd5b60008083601f840112614bc957614bc8614ba4565b5b8235905067ffffffffffffffff811115614be657614be5614ba9565b5b602083019150836001820283011115614c0257614c01614bae565b5b9250929050565b60008060008060008060006080888a031215614c2857614c276149ad565b5b6000614c368a828b016149ce565b975050602088013567ffffffffffffffff811115614c5757614c566149b2565b5b614c638a828b01614bb3565b9650965050604088013567ffffffffffffffff811115614c8657614c856149b2565b5b614c928a828b01614bb3565b9450945050606088013567ffffffffffffffff811115614cb557614cb46149b2565b5b614cc18a828b01614bb3565b925092505092959891949750929550565b60058110614cdf57600080fd5b50565b600081359050614cf181614cd2565b92915050565b60008060008060608587031215614d1157614d106149ad565b5b6000614d1f878288016149ce565b9450506020614d3087828801614ce2565b935050604085013567ffffffffffffffff811115614d5157614d506149b2565b5b614d5d87828801614bb3565b925092505092959194509250565b614d74816146bb565b82525050565b614d83816146f4565b82525050565b614d928161476b565b82525050565b600082825260208201905092915050565b6000614db4826147a7565b614dbe8185614d98565b9350614dce8185602086016147c3565b614dd7816147ed565b840191505092915050565b600061010082019050614df8600083018b614d6b565b614e05602083018a614d7a565b614e126040830189614d7a565b614e1f6060830188614d89565b614e2c6080830187614a7c565b81810360a0830152614e3e8186614da9565b905081810360c0830152614e528185614da9565b905081810360e0830152614e668184614da9565b90509998505050505050505050565b600061010082019050614e8b600083018b614d6b565b8181036020830152614e9d818a614da9565b9050614eac6040830189614d7a565b8181036060830152614ebe8188614da9565b9050614ecd6080830187614a7c565b614eda60a0830186614d89565b81810360c0830152614eec8185614da9565b9050614efb60e0830184614d7a565b9998505050505050505050565b6000602082019050614f1d6000830184614d7a565b92915050565b6000602082019050614f386000830184614d6b565b92915050565b7f4e487b7100000000000000000000000000000000000000000000000000000000600052603260045260246000fd5b7f4e487b7100000000000000000000000000000000000000000000000000000000600052601160045260246000fd5b6000614fa7826146bb565b91507fffffffffffffffffffffffffffffffffffffffffffffffffffffffffffffffff8203614fd957614fd8614f6d565b5b600182019050919050565b7f4e487b7100000000000000000000000000000000000000000000000000000000600052604160045260246000fd5b7f4e487b7100000000000000000000000000000000000000000000000000000000600052602260045260246000fd5b6000600282049050600182168061505a57607f821691505b60208210810361506d5761506c615013565b5b50919050565b7f53433a204f6e6c792063757272656e74206f776e65722063616e207472616e7360008201527f6665722e00000000000000000000000000000000000000000000000000000000602082015250565b60006150cf602483614d98565b91506150da82615073565b604082019050919050565b600060208201905081810360008301526150fe816150c2565b9050919050565b7f53433a2050726f6475637420646f6573206e6f742065786973742e0000000000600082015250565b600061513b601b83614d98565b915061514682615105565b602082019050919050565b6000602082019050818103600083015261516a8161512e565b9050919050565b7f53433a204f6e6c7920636f6e7472616374206f776e65722063616e2063616c6c60008201527f20746869732066756e6374696f6e2e0000000000000000000000000000000000602082015250565b60006151cd602f83614d98565b91506151d882615171565b604082019050919050565b600060208201905081810360008301526151fc816151c0565b9050919050565b7f53433a2050726f64756374206e6f7420666f756e642e00000000000000000000600082015250565b6000615239601683614d98565b915061524482615203565b602082019050919050565b600060208201905081810360008301526152688161522c565b9050919050565b7f53433a204163636573732064656e6965642e204d75737420626520612076657260008201527f6966696564204661726d65722e00000000000000000000000000000000000000602082015250565b60006152cb602d83614d98565b91506152d68261526f565b604082019050919050565b600060208201905081810360008301526152fa816152be565b9050919050565b7f53433a2050726f6475637420494420616c72656164792072656769737465726560008201527f642e000000000000000000000000000000000000000000000000000000000000602082015250565b600061535d602283614d98565b915061536882615301565b604082019050919050565b6000602082019050818103600083015261538c81615350565b9050919050565b60008190508160005260206000209050919050565b60006020601f8301049050919050565b60008160020a8302905092915050565b6000600883026153f87fffffffffffffffffffffffffffffffffffffffffffffffffffffffffffffffff826153b8565b61540286836153b8565b95508019841693508086168417925050509392505050565b6000819050919050565b600061543f61543a615435846146bb565b61541a565b6146bb565b9050919050565b6000819050919050565b61545983615424565b61546d61546582615446565b8484546153c8565b825550505050565b600090565b615482615475565b61548d818484615450565b505050565b5b818110156154b1576154a660008261547a565b600181019050615493565b5050565b601f8211156154f6576154c781615393565b6154d0846153a8565b810160208510156154df578190505b6154f36154eb856153a8565b830182615492565b50505b505050565b60008160020a8304905092915050565b600061551c600019846008026154fb565b1980831691505092915050565b6000615535838361550b565b9150826002028217905092915050565b61554e826147a7565b67ffffffffffffffff81111561556757615566614fe4565b5b6155718254615042565b61557c8282856154b5565b600060209050601f8311600181146155af576000841561559d578287015190505b6155a78582615529565b86555061560f565b601f1984166155bd86615393565b60005b828110156155e5578489015182556001820191506020850194506020810190506155c0565b8683101561560257848901516155fe601f89168261550b565b8355505b6001600288020188555050505b505050505050565b82818337600083830152505050565b60006156328385614d98565b935061563f838584615617565b615648836147ed565b840190509392505050565b60006040820190506156686000830186614d6b565b818103602083015261567b818486615626565b9050949350505050565b7f53433a204f6e6c792063757272656e74206f776e65722063616e20757064617460008201527f65207374617475732e0000000000000000000000000000000000000000000000602082015250565b60006156e1602983614d98565b91506156ec82615685565b604082019050919050565b60006020820190508181036000830152615710816156d4565b9050919050565b600060608201905061572c6000830187614d6b565b6157396020830186614d89565b818103604083015261574c818486615626565b905095945050505050565b7f53433a2050726f6475637420646f6573206e6f74206578697374000000000000600082015250565b600061578d601a83614d98565b915061579882615757565b602082019050919050565b600060208201905081810360008301526157bc81615780565b9050919050565b7f53433a2050726f64756374206e6f7420617661696c61626c6520666f72206f7260008201527f6465720000000000000000000000000000000000000000000000000000000000602082015250565b600061581f602383614d98565b915061582a826157c3565b604082019050919050565b6000602082019050818103600083015261584e81615812565b905091905056fea26469706673582212209901c54370f26bd6ce34deeaff9eb591e4670827686d71570512b87dae5bf22a64736f6c63430008150033",
  "immutableReferences": {},
  "source": "// SPDX-License-Identifier: MIT\npragma solidity >=0.4.22 <0.9.0;\n\ncontract SupplyChain {\n    // 1. Update State Enum to include 'Ordered'\n    enum State {\n        Created,\n        Ordered,\n        InTransit,\n        Stored,\n        Delivered\n    }\n    struct Product {\n        uint256 id;\n        address currentOwner;\n        address orderedBy;\n        State state;\n        bool isAuthentic;\n        string name;\n        string origin;\n        string ipfsHash;\n    }\n\n    // Array to keep track of all IDs (Required for \"View\" functions)\n    uint256[] public allProductIds;\n\n    mapping(uint256 => Product) public products;\n\n    address public contractOwner;\n    mapping(address => bool) public isVerifiedFarmer;\n    mapping(address => bool) public isAuthorizedEntity;\n\n    // Optimized lookups\n    mapping(address => uint256[]) private _productsByOwner;\n    mapping(address => uint256[]) private _ordersByUser;\n\n    event ProductRegistered(\n        uint256 productId,\n        string name,\n        address indexed farmer\n    );\n    event OwnershipTransferred(\n        uint256 productId,\n        address indexed from,\n        address indexed to\n    );\n    event StatusUpdated(uint256 productId, State newState, string ipfsData);\n\n    modifier onlyOwner() {\n        require(\n            msg.sender == contractOwner,\n            \"SC: Only contract owner can call this function.\"\n        );\n        _;\n    }\n\n    modifier onlyFarmer() {\n        require(\n            isVerifiedFarmer[msg.sender],\n            \"SC: Access denied. Must be a verified Farmer.\"\n        );\n        _;\n    }\n\n    modifier onlyAuthorized() {\n        require(\n            isAuthorizedEntity[msg.sender] || isVerifiedFarmer[msg.sender],\n            \"SC: Access denied. Not authorized.\"\n        );\n        _;\n    }\n\n    constructor() {\n        contractOwner = msg.sender;\n    }\n\n    function setFarmerRole(address _user) public onlyOwner {\n        isVerifiedFarmer[_user] = true;\n        isAuthorizedEntity[_user] = true;\n    }\n\n    function setEntityRole(address _user) public onlyOwner {\n        isAuthorizedEntity[_user] = true;\n    }\n\n    function registerProduct(\n        uint256 _id,\n        string calldata _name,\n        string calldata _origin,\n        string calldata _ipfsHash\n    ) public onlyFarmer {\n        require(products[_id].id == 0, \"SC: Product ID already registered.\");\n\n        products[_id] = Product({\n            id: _id,\n            currentOwner: msg.sender,\n            orderedBy: address(0),\n            state: State.Created,\n            isAuthentic: true,\n            name: _name,\n            origin: _origin,\n            ipfsHash: _ipfsHash\n        });\n\n        //Save ID to array so we can list it later\n        allProductIds.push(_id);\n        _productsByOwner[msg.sender].push(_id);\n\n        emit ProductRegistered(_id, _name, msg.sender);\n    }\n\n    function getAvailableProducts() public view returns (Product[] memory) {\n        uint256 count = 0;\n\n        for (uint256 i = 0; i < allProductIds.length; i++) {\n            if (products[allProductIds[i]].state == State.Created) {\n                count++;\n            }\n        }\n\n        Product[] memory availableItems = new Product[](count);\n        uint256 index = 0;\n\n        for (uint256 i = 0; i < allProductIds.length; i++) {\n            if (products[allProductIds[i]].state == State.Created) {\n                availableItems[index] = products[allProductIds[i]];\n                index++;\n            }\n        }\n\n        return availableItems;\n    }\n\n    function placeOrder(uint256 _id) public {\n        require(products[_id].id != 0, \"SC: Product does not exist\");\n        require(\n            products[_id].state == State.Created,\n            \"SC: Product not available for order\"\n        );\n\n        products[_id].state = State.Ordered;\n        products[_id].orderedBy = msg.sender;\n        _ordersByUser[msg.sender].push(_id);\n    }\n\n    function getMyOrders() public view returns (Product[] memory) {\n        uint256[] memory orderIds = _ordersByUser[msg.sender];\n        uint256 count = orderIds.length;\n        \n        // Also include products I'm selling that are ordered\n        // This is still O(N) on my products, but better than O(N) on all products\n        uint256[] memory myProductIds = _productsByOwner[msg.sender];\n        for(uint256 i = 0; i < myProductIds.length; i++) {\n             Product memory p = products[myProductIds[i]];\n             if (p.currentOwner == msg.sender && p.orderedBy != address(0)) {\n                 count++;\n             }\n        }\n\n        Product[] memory result = new Product[](count);\n        uint256 index = 0;\n\n        // Add my orders\n        for (uint256 i = 0; i < orderIds.length; i++) {\n            result[index] = products[orderIds[i]];\n            index++;\n        }\n\n        // Add my sales\n        for (uint256 i = 0; i < myProductIds.length; i++) {\n             Product memory p = products[myProductIds[i]];\n             if (p.currentOwner == msg.sender && p.orderedBy != address(0)) {\n                 result[index] = p;\n                 index++;\n             }\n        }\n        \n        return result;\n    }\n\n    function transferOwnership(uint256 _id, address _newOwner) public {\n        require(\n            products[_id].currentOwner == msg.sender,\n            \"SC: Only current owner can transfer.\"\n        );\n        require(products[_id].id != 0, \"SC: Product does not exist.\");\n        address previousOwner = products[_id].currentOwner;\n        products[_id].currentOwner = _newOwner;\n        \n        _productsByOwner[_newOwner].push(_id);\n        \n        emit OwnershipTransferred(_id, previousOwner, _newOwner);\n    }\n\n    function updateStatus(\n        uint256 _id,\n        State _newState,\n        string calldata _ipfsData\n    ) public {\n        require(\n            products[_id].currentOwner == msg.sender,\n            \"SC: Only current owner can update status.\"\n        );\n\n        // Update the Status\n        products[_id].state = _newState;\n        emit StatusUpdated(_id, _newState, _ipfsData);\n    }\n\n    function getProduct(\n        uint256 _id\n    )\n        public\n        view\n        returns (\n            uint256 id,\n            string memory name,\n            address currentOwner,\n            string memory origin,\n            bool isAuthentic,\n            State state,\n            string memory ipfsHash,\n            address orderedBy\n        )\n    {\n        Product memory p = products[_id];\n        return (\n            p.id,\n            p.name,\n            p.currentOwner,\n            p.origin,\n            p.isAuthentic,\n            p.state,\n            p.ipfsHash,\n            p.orderedBy\n        );\n    }\n\n    function getProductHistory(\n        uint256 _id\n    ) public view returns (address[] memory) {\n        require(products[_id].id != 0, \"SC: Product not found.\");\n        // History is no longer stored on-chain. \n        // Frontend should query 'OwnershipTransferred' events.\n        return new address[](0);\n    }\n\n    function verifyProduct(uint256 _id) public view returns (bool) {\n        return products[_id].isAuthentic;\n    }\n\n    // ========== DISTRIBUTOR FUNCTIONS ==========\n\n    /**\n     * Get all products currently owned by the caller (Distributor Inventory)\n     * @return Array of products owned by msg.sender\n     */\n    function getDistributorInventory() public view returns (Product[] memory) {\n        uint256[] memory myProductIds = _productsByOwner[msg.sender];\n        uint256 count = 0;\n\n        // Count products I currently own\n        for (uint256 i = 0; i < myProductIds.length; i++) {\n            if (products[myProductIds[i]].currentOwner == msg.sender) {\n                count++;\n            }\n        }\n\n        Product[] memory inventory = new Product[](count);\n        uint256 index = 0;\n\n        for (uint256 i = 0; i < myProductIds.length; i++) {\n            if (products[myProductIds[i]].currentOwner == msg.sender) {\n                inventory[index] = products[myProductIds[i]];\n                index++;\n            }\n        }\n\n        return inventory;\n    }\n\n    /**\n     * Get products that need to be delivered (in Stored state)\n     * @return Array of products in Stored state owned by msg.sender\n     */\n    function getDeliveryQueue() public view returns (Product[] memory) {\n        uint256[] memory myProductIds = _productsByOwner[msg.sender];\n        uint256 count = 0;\n\n        for (uint256 i = 0; i < myProductIds.length; i++) {\n            Product memory p = products[myProductIds[i]];\n            if (p.currentOwner == msg.sender && p.state == State.Stored) {\n                count++;\n            }\n        }\n\n        Product[] memory queue = new Product[](count);\n        uint256 index = 0;\n\n        for (uint256 i = 0; i < myProductIds.length; i++) {\n            Product memory p = products[myProductIds[i]];\n            if (p.currentOwner == msg.sender && p.state == State.Stored) {\n                queue[index] = p;\n                index++;\n            }\n        }\n\n        return queue;\n    }\n\n    /**\n     * Get products that have been received but not yet stored (in InTransit state)\n     * @return Array of products in InTransit state owned by msg.sender\n     */\n    function getReceivedProducts() public view returns (Product[] memory) {\n        uint256[] memory myProductIds = _productsByOwner[msg.sender];\n        uint256 count = 0;\n\n        for (uint256 i = 0; i < myProductIds.length; i++) {\n            Product memory p = products[myProductIds[i]];\n            if (p.currentOwner == msg.sender && p.state == State.InTransit) {\n                count++;\n            }\n        }\n\n        Product[] memory received = new Product[](count);\n        uint256 index = 0;\n\n        for (uint256 i = 0; i < myProductIds.length; i++) {\n            Product memory p = products[myProductIds[i]];\n            if (p.currentOwner == msg.sender && p.state == State.InTransit) {\n                received[index] = p;\n                index++;\n            }\n        }\n\n        return received;\n    }\n\n    /**\n     * Get products that have been delivered (in Delivered state and I was the previous owner)\n     * @return Array of products in Delivered state that were owned by msg.sender\n     */\n    function getDeliveryHistory() public view returns (Product[] memory) {\n        // This function is tricky because we need to find products I *used* to own that are now Delivered.\n        // With _productsByOwner, we have a list of all products I ever touched.\n        \n        uint256[] memory myProductIds = _productsByOwner[msg.sender];\n        uint256 count = 0;\n\n        for (uint256 i = 0; i < myProductIds.length; i++) {\n            Product memory p = products[myProductIds[i]];\n            // Check if product is delivered and I am NOT the current owner (meaning I passed it on)\n            if (p.state == State.Delivered && p.currentOwner != msg.sender) {\n                 count++;\n            }\n        }\n\n        Product[] memory history = new Product[](count);\n        uint256 index = 0;\n\n        for (uint256 i = 0; i < myProductIds.length; i++) {\n            Product memory p = products[myProductIds[i]];\n             if (p.state == State.Delivered && p.currentOwner != msg.sender) {\n                history[index] = p;\n                index++;\n            }\n        }\n\n        return history;\n    }\n}\n",
  "sourcePath": "/Users/kiran/Desktop/ASU_related/food-supply/food-supplychain/contracts/SupplyChain.sol",
  "compiler": {
    "name": "solc",
    "version": "0.8.21+commit.d9974bed.Emscripten.clang"
  },
  "schemaVersion": "3.4.16",
  "updatedAt": "2025-12-02T01:46:28.268Z",
  "networkType": "ethereum",
  "devdoc": {
    "kind": "dev",
    "methods": {
      "getDeliveryHistory()": {
        "returns": {
          "_0": "Array of products in Delivered state that were owned by msg.sender"
        }
      },
      "getDeliveryQueue()": {
        "returns": {
          "_0": "Array of products in Stored state owned by msg.sender"
        }
      },
      "getDistributorInventory()": {
        "returns": {
          "_0": "Array of products owned by msg.sender"
        }
      },
      "getReceivedProducts()": {
        "returns": {
          "_0": "Array of products in InTransit state owned by msg.sender"
        }
      }
    },
    "version": 1
  },
  "userdoc": {
    "kind": "user",
    "methods": {
      "getDeliveryHistory()": {
        "notice": "Get products that have been delivered (in Delivered state and I was the previous owner)"
      },
      "getDeliveryQueue()": {
        "notice": "Get products that need to be delivered (in Stored state)"
      },
      "getDistributorInventory()": {
        "notice": "Get all products currently owned by the caller (Distributor Inventory)"
      },
      "getReceivedProducts()": {
        "notice": "Get products that have been received but not yet stored (in InTransit state)"
      }
    },
    "version": 1
  }
}