{
  "contractName": "SupplyChain",
  "abi": [
    {
      "inputs": [],
      "stateMutability": "nonpayable",
      "type": "constructor"
    },
    {
      "anonymous": false,
      "inputs": [
        {
          "indexed": false,
          "internalType": "uint256",
          "name": "productId",
          "type": "uint256"
        },
        {
          "indexed": true,
          "internalType": "address",
          "name": "from",
          "type": "address"
        },
        {
          "indexed": true,
          "internalType": "address",
          "name": "to",
          "type": "address"
        }
      ],
      "name": "OwnershipTransferred",
      "type": "event"
    },
    {
      "anonymous": false,
      "inputs": [
        {
          "indexed": false,
          "internalType": "uint256",
          "name": "productId",
          "type": "uint256"
        },
        {
          "indexed": false,
          "internalType": "string",
          "name": "name",
          "type": "string"
        },
        {
          "indexed": true,
          "internalType": "address",
          "name": "farmer",
          "type": "address"
        }
      ],
      "name": "ProductRegistered",
      "type": "event"
    },
    {
      "anonymous": false,
      "inputs": [
        {
          "indexed": false,
          "internalType": "uint256",
          "name": "productId",
          "type": "uint256"
        },
        {
          "indexed": false,
          "internalType": "enum SupplyChain.State",
          "name": "newState",
          "type": "uint8"
        },
        {
          "indexed": false,
          "internalType": "string",
          "name": "ipfsData",
          "type": "string"
        },
        {
          "indexed": false,
          "internalType": "address",
          "name": "actor",
          "type": "address"
        }
      ],
      "name": "StatusUpdated",
      "type": "event"
    },
    {
      "inputs": [
        {
          "internalType": "uint256",
          "name": "",
          "type": "uint256"
        }
      ],
      "name": "allProductIds",
      "outputs": [
        {
          "internalType": "uint256",
          "name": "",
          "type": "uint256"
        }
      ],
      "stateMutability": "view",
      "type": "function",
      "constant": true
    },
    {
      "inputs": [],
      "name": "contractOwner",
      "outputs": [
        {
          "internalType": "address",
          "name": "",
          "type": "address"
        }
      ],
      "stateMutability": "view",
      "type": "function",
      "constant": true
    },
    {
      "inputs": [
        {
          "internalType": "address",
          "name": "",
          "type": "address"
        }
      ],
      "name": "isAuthorizedEntity",
      "outputs": [
        {
          "internalType": "bool",
          "name": "",
          "type": "bool"
        }
      ],
      "stateMutability": "view",
      "type": "function",
      "constant": true
    },
    {
      "inputs": [
        {
          "internalType": "address",
          "name": "",
          "type": "address"
        }
      ],
      "name": "isVerifiedFarmer",
      "outputs": [
        {
          "internalType": "bool",
          "name": "",
          "type": "bool"
        }
      ],
      "stateMutability": "view",
      "type": "function",
      "constant": true
    },
    {
      "inputs": [
        {
          "internalType": "uint256",
          "name": "",
          "type": "uint256"
        }
      ],
      "name": "products",
      "outputs": [
        {
          "internalType": "uint256",
          "name": "id",
          "type": "uint256"
        },
        {
          "internalType": "address",
          "name": "currentOwner",
          "type": "address"
        },
        {
          "internalType": "address",
          "name": "orderedBy",
          "type": "address"
        },
        {
          "internalType": "enum SupplyChain.State",
          "name": "state",
          "type": "uint8"
        },
        {
          "internalType": "bool",
          "name": "isAuthentic",
          "type": "bool"
        },
        {
          "internalType": "string",
          "name": "name",
          "type": "string"
        },
        {
          "internalType": "string",
          "name": "origin",
          "type": "string"
        },
        {
          "internalType": "string",
          "name": "ipfsHash",
          "type": "string"
        }
      ],
      "stateMutability": "view",
      "type": "function",
      "constant": true
    },
    {
      "inputs": [
        {
          "internalType": "address",
          "name": "_user",
          "type": "address"
        }
      ],
      "name": "setFarmerRole",
      "outputs": [],
      "stateMutability": "nonpayable",
      "type": "function"
    },
    {
      "inputs": [
        {
          "internalType": "address",
          "name": "_user",
          "type": "address"
        }
      ],
      "name": "setEntityRole",
      "outputs": [],
      "stateMutability": "nonpayable",
      "type": "function"
    },
    {
      "inputs": [
        {
          "internalType": "uint256",
          "name": "_id",
          "type": "uint256"
        },
        {
          "internalType": "string",
          "name": "_name",
          "type": "string"
        },
        {
          "internalType": "string",
          "name": "_origin",
          "type": "string"
        },
        {
          "internalType": "string",
          "name": "_ipfsHash",
          "type": "string"
        }
      ],
      "name": "registerProduct",
      "outputs": [],
      "stateMutability": "nonpayable",
      "type": "function"
    },
    {
      "inputs": [],
      "name": "getAvailableProducts",
      "outputs": [
        {
          "components": [
            {
              "internalType": "uint256",
              "name": "id",
              "type": "uint256"
            },
            {
              "internalType": "address",
              "name": "currentOwner",
              "type": "address"
            },
            {
              "internalType": "address",
              "name": "orderedBy",
              "type": "address"
            },
            {
              "internalType": "enum SupplyChain.State",
              "name": "state",
              "type": "uint8"
            },
            {
              "internalType": "bool",
              "name": "isAuthentic",
              "type": "bool"
            },
            {
              "internalType": "string",
              "name": "name",
              "type": "string"
            },
            {
              "internalType": "string",
              "name": "origin",
              "type": "string"
            },
            {
              "internalType": "string",
              "name": "ipfsHash",
              "type": "string"
            }
          ],
          "internalType": "struct SupplyChain.Product[]",
          "name": "",
          "type": "tuple[]"
        }
      ],
      "stateMutability": "view",
      "type": "function",
      "constant": true
    },
    {
      "inputs": [
        {
          "internalType": "uint256",
          "name": "_id",
          "type": "uint256"
        }
      ],
      "name": "placeOrder",
      "outputs": [],
      "stateMutability": "nonpayable",
      "type": "function"
    },
    {
      "inputs": [],
      "name": "getMyOrders",
      "outputs": [
        {
          "components": [
            {
              "internalType": "uint256",
              "name": "id",
              "type": "uint256"
            },
            {
              "internalType": "address",
              "name": "currentOwner",
              "type": "address"
            },
            {
              "internalType": "address",
              "name": "orderedBy",
              "type": "address"
            },
            {
              "internalType": "enum SupplyChain.State",
              "name": "state",
              "type": "uint8"
            },
            {
              "internalType": "bool",
              "name": "isAuthentic",
              "type": "bool"
            },
            {
              "internalType": "string",
              "name": "name",
              "type": "string"
            },
            {
              "internalType": "string",
              "name": "origin",
              "type": "string"
            },
            {
              "internalType": "string",
              "name": "ipfsHash",
              "type": "string"
            }
          ],
          "internalType": "struct SupplyChain.Product[]",
          "name": "",
          "type": "tuple[]"
        }
      ],
      "stateMutability": "view",
      "type": "function",
      "constant": true
    },
    {
      "inputs": [
        {
          "internalType": "uint256",
          "name": "_id",
          "type": "uint256"
        },
        {
          "internalType": "address",
          "name": "_newOwner",
          "type": "address"
        }
      ],
      "name": "transferOwnership",
      "outputs": [],
      "stateMutability": "nonpayable",
      "type": "function"
    },
    {
      "inputs": [
        {
          "internalType": "uint256",
          "name": "_id",
          "type": "uint256"
        },
        {
          "internalType": "enum SupplyChain.State",
          "name": "_state",
          "type": "uint8"
        },
        {
          "internalType": "string",
          "name": "_ipfsData",
          "type": "string"
        }
      ],
      "name": "updateStatus",
      "outputs": [],
      "stateMutability": "nonpayable",
      "type": "function"
    },
    {
      "inputs": [
        {
          "internalType": "uint256",
          "name": "_id",
          "type": "uint256"
        }
      ],
      "name": "getProduct",
      "outputs": [
        {
          "internalType": "uint256",
          "name": "id",
          "type": "uint256"
        },
        {
          "internalType": "string",
          "name": "name",
          "type": "string"
        },
        {
          "internalType": "address",
          "name": "currentOwner",
          "type": "address"
        },
        {
          "internalType": "string",
          "name": "origin",
          "type": "string"
        },
        {
          "internalType": "bool",
          "name": "isAuthentic",
          "type": "bool"
        },
        {
          "internalType": "enum SupplyChain.State",
          "name": "state",
          "type": "uint8"
        },
        {
          "internalType": "string",
          "name": "ipfsHash",
          "type": "string"
        },
        {
          "internalType": "address",
          "name": "orderedBy",
          "type": "address"
        }
      ],
      "stateMutability": "view",
      "type": "function",
      "constant": true
    },
    {
      "inputs": [
        {
          "internalType": "uint256",
          "name": "_id",
          "type": "uint256"
        }
      ],
      "name": "getProductHistory",
      "outputs": [
        {
          "internalType": "address[]",
          "name": "",
          "type": "address[]"
        }
      ],
      "stateMutability": "view",
      "type": "function",
      "constant": true
    },
    {
      "inputs": [
        {
          "internalType": "uint256",
          "name": "_id",
          "type": "uint256"
        }
      ],
      "name": "verifyProduct",
      "outputs": [
        {
          "internalType": "bool",
          "name": "",
          "type": "bool"
        }
      ],
      "stateMutability": "view",
      "type": "function",
      "constant": true
    },
    {
      "inputs": [],
      "name": "getDistributorInventory",
      "outputs": [
        {
          "components": [
            {
              "internalType": "uint256",
              "name": "id",
              "type": "uint256"
            },
            {
              "internalType": "address",
              "name": "currentOwner",
              "type": "address"
            },
            {
              "internalType": "address",
              "name": "orderedBy",
              "type": "address"
            },
            {
              "internalType": "enum SupplyChain.State",
              "name": "state",
              "type": "uint8"
            },
            {
              "internalType": "bool",
              "name": "isAuthentic",
              "type": "bool"
            },
            {
              "internalType": "string",
              "name": "name",
              "type": "string"
            },
            {
              "internalType": "string",
              "name": "origin",
              "type": "string"
            },
            {
              "internalType": "string",
              "name": "ipfsHash",
              "type": "string"
            }
          ],
          "internalType": "struct SupplyChain.Product[]",
          "name": "",
          "type": "tuple[]"
        }
      ],
      "stateMutability": "view",
      "type": "function",
      "constant": true
    },
    {
      "inputs": [],
      "name": "getDeliveryQueue",
      "outputs": [
        {
          "components": [
            {
              "internalType": "uint256",
              "name": "id",
              "type": "uint256"
            },
            {
              "internalType": "address",
              "name": "currentOwner",
              "type": "address"
            },
            {
              "internalType": "address",
              "name": "orderedBy",
              "type": "address"
            },
            {
              "internalType": "enum SupplyChain.State",
              "name": "state",
              "type": "uint8"
            },
            {
              "internalType": "bool",
              "name": "isAuthentic",
              "type": "bool"
            },
            {
              "internalType": "string",
              "name": "name",
              "type": "string"
            },
            {
              "internalType": "string",
              "name": "origin",
              "type": "string"
            },
            {
              "internalType": "string",
              "name": "ipfsHash",
              "type": "string"
            }
          ],
          "internalType": "struct SupplyChain.Product[]",
          "name": "",
          "type": "tuple[]"
        }
      ],
      "stateMutability": "view",
      "type": "function",
      "constant": true
    },
    {
      "inputs": [],
      "name": "getReceivedProducts",
      "outputs": [
        {
          "components": [
            {
              "internalType": "uint256",
              "name": "id",
              "type": "uint256"
            },
            {
              "internalType": "address",
              "name": "currentOwner",
              "type": "address"
            },
            {
              "internalType": "address",
              "name": "orderedBy",
              "type": "address"
            },
            {
              "internalType": "enum SupplyChain.State",
              "name": "state",
              "type": "uint8"
            },
            {
              "internalType": "bool",
              "name": "isAuthentic",
              "type": "bool"
            },
            {
              "internalType": "string",
              "name": "name",
              "type": "string"
            },
            {
              "internalType": "string",
              "name": "origin",
              "type": "string"
            },
            {
              "internalType": "string",
              "name": "ipfsHash",
              "type": "string"
            }
          ],
          "internalType": "struct SupplyChain.Product[]",
          "name": "",
          "type": "tuple[]"
        }
      ],
      "stateMutability": "view",
      "type": "function",
      "constant": true
    },
    {
      "inputs": [],
      "name": "getDeliveryHistory",
      "outputs": [
        {
          "components": [
            {
              "internalType": "uint256",
              "name": "id",
              "type": "uint256"
            },
            {
              "internalType": "address",
              "name": "currentOwner",
              "type": "address"
            },
            {
              "internalType": "address",
              "name": "orderedBy",
              "type": "address"
            },
            {
              "internalType": "enum SupplyChain.State",
              "name": "state",
              "type": "uint8"
            },
            {
              "internalType": "bool",
              "name": "isAuthentic",
              "type": "bool"
            },
            {
              "internalType": "string",
              "name": "name",
              "type": "string"
            },
            {
              "internalType": "string",
              "name": "origin",
              "type": "string"
            },
            {
              "internalType": "string",
              "name": "ipfsHash",
              "type": "string"
            }
          ],
          "internalType": "struct SupplyChain.Product[]",
          "name": "",
          "type": "tuple[]"
        }
      ],
      "stateMutability": "view",
      "type": "function",
      "constant": true
    }
  ],
  "bytecode": "0x608060405234801561001057600080fd5b5033600260006101000a81548173ffffffffffffffffffffffffffffffffffffffff021916908373ffffffffffffffffffffffffffffffffffffffff160217905550615d2e80620000626000396000f3fe608060405234801561001057600080fd5b5060043610610119576000357c0100000000000000000000000000000000000000000000000000000000900480630ff4e2b41461011e578063180b46d41461013c57806329507f731461015a57806334d65efd146101765780633a9d23d3146101a6578063524e8462146101c2578063525d45e2146101f257806357a096a1146102105780635ff3cd9414610240578063700bd66e1461025e578063781f0b721461027a5780637acc0b2014610296578063b9db15b4146102cd578063ba2255f414610304578063bab5933a14610320578063c05806991461033e578063c743ecca1461036e578063ce606ee01461038a578063dde1bbcf146103a8578063e983372b146103d8575b600080fd5b6101266103f6565b6040516101339190614bb1565b60405180910390f35b6101446108b5565b6040516101519190614bb1565b60405180910390f35b610174600480360381019061016f9190614c35565b611102565b005b610190600480360381019061018b9190614c75565b61135f565b60405161019d9190614cb1565b60405180910390f35b6101c060048036038101906101bb9190614c75565b61137f565b005b6101dc60048036038101906101d79190614ccc565b6114c2565b6040516101e99190614cb1565b60405180910390f35b6101fa6114ef565b6040516102079190614bb1565b60405180910390f35b61022a60048036038101906102259190614ccc565b611a64565b6040516102379190614da8565b60405180910390f35b610248611b10565b6040516102559190614bb1565b60405180910390f35b61027860048036038101906102739190614e2f565b61235d565b005b610294600480360381019061028f9190614f1d565b6127b5565b005b6102b060048036038101906102ab9190614ccc565b612ac4565b6040516102c4989796959493929190615008565b60405180910390f35b6102e760048036038101906102e29190614ccc565b612cfe565b6040516102fb98979695949392919061509b565b60405180910390f35b61031e60048036038101906103199190614ccc565b613035565b005b610328613250565b6040516103359190614bb1565b60405180910390f35b61035860048036038101906103539190614c75565b613e8e565b6040516103659190614cb1565b60405180910390f35b61038860048036038101906103839190614c75565b613eae565b005b610392613f99565b60405161039f919061512e565b60405180910390f35b6103c260048036038101906103bd9190614ccc565b613fbf565b6040516103cf9190615149565b60405180910390f35b6103e0613fe3565b6040516103ed9190614bb1565b60405180910390f35b60606000805b600080549050811015610497576000600481111561041d5761041c61493b565b5b6001600080848154811061043457610433615164565b5b9060005260206000200154815260200190815260200160002060020160149054906101000a900460ff1660048111156104705761046f61493b565b5b03610484578180610480906151c2565b9250505b808061048f906151c2565b9150506103fc565b5060008167ffffffffffffffff8111156104b4576104b361520a565b5b6040519080825280602002602001820160405280156104ed57816020015b6104da614830565b8152602001906001900390816104d25790505b5090506000805b6000805490508110156108ab57600060048111156105155761051461493b565b5b6001600080848154811061052c5761052b615164565b5b9060005260206000200154815260200190815260200160002060020160149054906101000a900460ff1660048111156105685761056761493b565b5b03610898576001600080838154811061058457610583615164565b5b9060005260206000200154815260200190815260200160002060405180610100016040529081600082015481526020016001820160009054906101000a900473ffffffffffffffffffffffffffffffffffffffff1673ffffffffffffffffffffffffffffffffffffffff1673ffffffffffffffffffffffffffffffffffffffff1681526020016002820160009054906101000a900473ffffffffffffffffffffffffffffffffffffffff1673ffffffffffffffffffffffffffffffffffffffff1673ffffffffffffffffffffffffffffffffffffffff1681526020016002820160149054906101000a900460ff1660048111156106845761068361493b565b5b60048111156106965761069561493b565b5b81526020016002820160159054906101000a900460ff161515151581526020016003820180546106c590615268565b80601f01602080910402602001604051908101604052809291908181526020018280546106f190615268565b801561073e5780601f106107135761010080835404028352916020019161073e565b820191906000526020600020905b81548152906001019060200180831161072157829003601f168201915b5050505050815260200160048201805461075790615268565b80601f016020809104026020016040519081016040528092919081815260200182805461078390615268565b80156107d05780601f106107a5576101008083540402835291602001916107d0565b820191906000526020600020905b8154815290600101906020018083116107b357829003601f168201915b505050505081526020016005820180546107e990615268565b80601f016020809104026020016040519081016040528092919081815260200182805461081590615268565b80156108625780601f1061083757610100808354040283529160200191610862565b820191906000526020600020905b81548152906001019060200180831161084557829003601f168201915b50505050508152505083838151811061087e5761087d615164565b5b60200260200101819052508180610894906151c2565b9250505b80806108a3906151c2565b9150506104f4565b5081935050505090565b60606000600560003373ffffffffffffffffffffffffffffffffffffffff1673ffffffffffffffffffffffffffffffffffffffff16815260200190815260200160002080548060200260200160405190810160405280929190818152602001828054801561094257602002820191906000526020600020905b81548152602001906001019080831161092e575b505050505090506000805b8251811015610ce45760006001600085848151811061096f5761096e615164565b5b6020026020010151815260200190815260200160002060405180610100016040529081600082015481526020016001820160009054906101000a900473ffffffffffffffffffffffffffffffffffffffff1673ffffffffffffffffffffffffffffffffffffffff1673ffffffffffffffffffffffffffffffffffffffff1681526020016002820160009054906101000a900473ffffffffffffffffffffffffffffffffffffffff1673ffffffffffffffffffffffffffffffffffffffff1673ffffffffffffffffffffffffffffffffffffffff1681526020016002820160149054906101000a900460ff166004811115610a6c57610a6b61493b565b5b6004811115610a7e57610a7d61493b565b5b81526020016002820160159054906101000a900460ff16151515158152602001600382018054610aad90615268565b80601f0160208091040260200160405190810160405280929190818152602001828054610ad990615268565b8015610b265780601f10610afb57610100808354040283529160200191610b26565b820191906000526020600020905b815481529060010190602001808311610b0957829003601f168201915b50505050508152602001600482018054610b3f90615268565b80601f0160208091040260200160405190810160405280929190818152602001828054610b6b90615268565b8015610bb85780601f10610b8d57610100808354040283529160200191610bb8565b820191906000526020600020905b815481529060010190602001808311610b9b57829003601f168201915b50505050508152602001600582018054610bd190615268565b80601f0160208091040260200160405190810160405280929190818152602001828054610bfd90615268565b8015610c4a5780601f10610c1f57610100808354040283529160200191610c4a565b820191906000526020600020905b815481529060010190602001808311610c2d57829003601f168201915b50505050508152505090503373ffffffffffffffffffffffffffffffffffffffff16816020015173ffffffffffffffffffffffffffffffffffffffff16148015610cbc575060036004811115610ca357610ca261493b565b5b81606001516004811115610cba57610cb961493b565b5b145b15610cd0578280610ccc906151c2565b9350505b508080610cdc906151c2565b91505061094d565b5060008167ffffffffffffffff811115610d0157610d0061520a565b5b604051908082528060200260200182016040528015610d3a57816020015b610d27614830565b815260200190600190039081610d1f5790505b5090506000805b84518110156110f757600060016000878481518110610d6357610d62615164565b5b6020026020010151815260200190815260200160002060405180610100016040529081600082015481526020016001820160009054906101000a900473ffffffffffffffffffffffffffffffffffffffff1673ffffffffffffffffffffffffffffffffffffffff1673ffffffffffffffffffffffffffffffffffffffff1681526020016002820160009054906101000a900473ffffffffffffffffffffffffffffffffffffffff1673ffffffffffffffffffffffffffffffffffffffff1673ffffffffffffffffffffffffffffffffffffffff1681526020016002820160149054906101000a900460ff166004811115610e6057610e5f61493b565b5b6004811115610e7257610e7161493b565b5b81526020016002820160159054906101000a900460ff16151515158152602001600382018054610ea190615268565b80601f0160208091040260200160405190810160405280929190818152602001828054610ecd90615268565b8015610f1a5780601f10610eef57610100808354040283529160200191610f1a565b820191906000526020600020905b815481529060010190602001808311610efd57829003601f168201915b50505050508152602001600482018054610f3390615268565b80601f0160208091040260200160405190810160405280929190818152602001828054610f5f90615268565b8015610fac5780601f10610f8157610100808354040283529160200191610fac565b820191906000526020600020905b815481529060010190602001808311610f8f57829003601f168201915b50505050508152602001600582018054610fc590615268565b80601f0160208091040260200160405190810160405280929190818152602001828054610ff190615268565b801561103e5780601f106110135761010080835404028352916020019161103e565b820191906000526020600020905b81548152906001019060200180831161102157829003601f168201915b50505050508152505090503373ffffffffffffffffffffffffffffffffffffffff16816020015173ffffffffffffffffffffffffffffffffffffffff161480156110b05750600360048111156110975761109661493b565b5b816060015160048111156110ae576110ad61493b565b5b145b156110e357808484815181106110c9576110c8615164565b5b602002602001018190525082806110df906151c2565b9350505b5080806110ef906151c2565b915050610d41565b508194505050505090565b3373ffffffffffffffffffffffffffffffffffffffff166001600084815260200190815260200160002060010160009054906101000a900473ffffffffffffffffffffffffffffffffffffffff1673ffffffffffffffffffffffffffffffffffffffff16146111a6576040517f08c379a000000000000000000000000000000000000000000000000000000000815260040161119d9061530b565b60405180910390fd5b60006001600084815260200190815260200160002060000154036111ff576040517f08c379a00000000000000000000000000000000000000000000000000000000081526004016111f690615377565b60405180910390fd5b60006001600084815260200190815260200160002060010160009054906101000a900473ffffffffffffffffffffffffffffffffffffffff169050816001600085815260200190815260200160002060010160006101000a81548173ffffffffffffffffffffffffffffffffffffffff021916908373ffffffffffffffffffffffffffffffffffffffff160217905550600560008373ffffffffffffffffffffffffffffffffffffffff1673ffffffffffffffffffffffffffffffffffffffff1681526020019081526020016000208390806001815401808255809150506001900390600052602060002001600090919091909150558173ffffffffffffffffffffffffffffffffffffffff168173ffffffffffffffffffffffffffffffffffffffff167f16b85f49bf01212961345d3016c9a531894accf62eb7680f2045d79185cc0ec0856040516113529190615149565b60405180910390a3505050565b60046020528060005260406000206000915054906101000a900460ff1681565b600260009054906101000a900473ffffffffffffffffffffffffffffffffffffffff1673ffffffffffffffffffffffffffffffffffffffff163373ffffffffffffffffffffffffffffffffffffffff161461140f576040517f08c379a000000000000000000000000000000000000000000000000000000000815260040161140690615409565b60405180910390fd5b6001600360008373ffffffffffffffffffffffffffffffffffffffff1673ffffffffffffffffffffffffffffffffffffffff16815260200190815260200160002060006101000a81548160ff0219169083151502179055506001600460008373ffffffffffffffffffffffffffffffffffffffff1673ffffffffffffffffffffffffffffffffffffffff16815260200190815260200160002060006101000a81548160ff02191690831515021790555050565b60006001600083815260200190815260200160002060020160159054906101000a900460ff169050919050565b60606000600560003373ffffffffffffffffffffffffffffffffffffffff1673ffffffffffffffffffffffffffffffffffffffff16815260200190815260200160002080548060200260200160405190810160405280929190818152602001828054801561157c57602002820191906000526020600020905b815481526020019060010190808311611568575b505050505090506000805b8251811015611635573373ffffffffffffffffffffffffffffffffffffffff16600160008584815181106115be576115bd615164565b5b6020026020010151815260200190815260200160002060010160009054906101000a900473ffffffffffffffffffffffffffffffffffffffff1673ffffffffffffffffffffffffffffffffffffffff160361162257818061161e906151c2565b9250505b808061162d906151c2565b915050611587565b5060008167ffffffffffffffff8111156116525761165161520a565b5b60405190808252806020026020018201604052801561168b57816020015b611678614830565b8152602001906001900390816116705790505b5090506000805b8451811015611a59573373ffffffffffffffffffffffffffffffffffffffff16600160008784815181106116c9576116c8615164565b5b6020026020010151815260200190815260200160002060010160009054906101000a900473ffffffffffffffffffffffffffffffffffffffff1673ffffffffffffffffffffffffffffffffffffffff1603611a46576001600086838151811061173557611734615164565b5b6020026020010151815260200190815260200160002060405180610100016040529081600082015481526020016001820160009054906101000a900473ffffffffffffffffffffffffffffffffffffffff1673ffffffffffffffffffffffffffffffffffffffff1673ffffffffffffffffffffffffffffffffffffffff1681526020016002820160009054906101000a900473ffffffffffffffffffffffffffffffffffffffff1673ffffffffffffffffffffffffffffffffffffffff1673ffffffffffffffffffffffffffffffffffffffff1681526020016002820160149054906101000a900460ff1660048111156118325761183161493b565b5b60048111156118445761184361493b565b5b81526020016002820160159054906101000a900460ff1615151515815260200160038201805461187390615268565b80601f016020809104026020016040519081016040528092919081815260200182805461189f90615268565b80156118ec5780601f106118c1576101008083540402835291602001916118ec565b820191906000526020600020905b8154815290600101906020018083116118cf57829003601f168201915b5050505050815260200160048201805461190590615268565b80601f016020809104026020016040519081016040528092919081815260200182805461193190615268565b801561197e5780601f106119535761010080835404028352916020019161197e565b820191906000526020600020905b81548152906001019060200180831161196157829003601f168201915b5050505050815260200160058201805461199790615268565b80601f01602080910402602001604051908101604052809291908181526020018280546119c390615268565b8015611a105780601f106119e557610100808354040283529160200191611a10565b820191906000526020600020905b8154815290600101906020018083116119f357829003601f168201915b505050505081525050838381518110611a2c57611a2b615164565b5b60200260200101819052508180611a42906151c2565b9250505b8080611a51906151c2565b915050611692565b508194505050505090565b60606000600160008481526020019081526020016000206000015403611abf576040517f08c379a0000000000000000000000000000000000000000000000000000000008152600401611ab690615475565b60405180910390fd5b600067ffffffffffffffff811115611ada57611ad961520a565b5b604051908082528060200260200182016040528015611b085781602001602082028036833780820191505090505b509050919050565b60606000600560003373ffffffffffffffffffffffffffffffffffffffff1673ffffffffffffffffffffffffffffffffffffffff168152602001908152602001600020805480602002602001604051908101604052809291908181526020018280548015611b9d57602002820191906000526020600020905b815481526020019060010190808311611b89575b505050505090506000805b8251811015611f3f57600060016000858481518110611bca57611bc9615164565b5b6020026020010151815260200190815260200160002060405180610100016040529081600082015481526020016001820160009054906101000a900473ffffffffffffffffffffffffffffffffffffffff1673ffffffffffffffffffffffffffffffffffffffff1673ffffffffffffffffffffffffffffffffffffffff1681526020016002820160009054906101000a900473ffffffffffffffffffffffffffffffffffffffff1673ffffffffffffffffffffffffffffffffffffffff1673ffffffffffffffffffffffffffffffffffffffff1681526020016002820160149054906101000a900460ff166004811115611cc757611cc661493b565b5b6004811115611cd957611cd861493b565b5b81526020016002820160159054906101000a900460ff16151515158152602001600382018054611d0890615268565b80601f0160208091040260200160405190810160405280929190818152602001828054611d3490615268565b8015611d815780601f10611d5657610100808354040283529160200191611d81565b820191906000526020600020905b815481529060010190602001808311611d6457829003601f168201915b50505050508152602001600482018054611d9a90615268565b80601f0160208091040260200160405190810160405280929190818152602001828054611dc690615268565b8015611e135780601f10611de857610100808354040283529160200191611e13565b820191906000526020600020905b815481529060010190602001808311611df657829003601f168201915b50505050508152602001600582018054611e2c90615268565b80601f0160208091040260200160405190810160405280929190818152602001828054611e5890615268565b8015611ea55780601f10611e7a57610100808354040283529160200191611ea5565b820191906000526020600020905b815481529060010190602001808311611e8857829003601f168201915b5050505050815250509050600480811115611ec357611ec261493b565b5b81606001516004811115611eda57611ed961493b565b5b148015611f1757503373ffffffffffffffffffffffffffffffffffffffff16816020015173ffffffffffffffffffffffffffffffffffffffff1614155b15611f2b578280611f27906151c2565b9350505b508080611f37906151c2565b915050611ba8565b5060008167ffffffffffffffff811115611f5c57611f5b61520a565b5b604051908082528060200260200182016040528015611f9557816020015b611f82614830565b815260200190600190039081611f7a5790505b5090506000805b845181101561235257600060016000878481518110611fbe57611fbd615164565b5b6020026020010151815260200190815260200160002060405180610100016040529081600082015481526020016001820160009054906101000a900473ffffffffffffffffffffffffffffffffffffffff1673ffffffffffffffffffffffffffffffffffffffff1673ffffffffffffffffffffffffffffffffffffffff1681526020016002820160009054906101000a900473ffffffffffffffffffffffffffffffffffffffff1673ffffffffffffffffffffffffffffffffffffffff1673ffffffffffffffffffffffffffffffffffffffff1681526020016002820160149054906101000a900460ff1660048111156120bb576120ba61493b565b5b60048111156120cd576120cc61493b565b5b81526020016002820160159054906101000a900460ff161515151581526020016003820180546120fc90615268565b80601f016020809104026020016040519081016040528092919081815260200182805461212890615268565b80156121755780601f1061214a57610100808354040283529160200191612175565b820191906000526020600020905b81548152906001019060200180831161215857829003601f168201915b5050505050815260200160048201805461218e90615268565b80601f01602080910402602001604051908101604052809291908181526020018280546121ba90615268565b80156122075780601f106121dc57610100808354040283529160200191612207565b820191906000526020600020905b8154815290600101906020018083116121ea57829003601f168201915b5050505050815260200160058201805461222090615268565b80601f016020809104026020016040519081016040528092919081815260200182805461224c90615268565b80156122995780601f1061226e57610100808354040283529160200191612299565b820191906000526020600020905b81548152906001019060200180831161227c57829003601f168201915b50505050508152505090506004808111156122b7576122b661493b565b5b816060015160048111156122ce576122cd61493b565b5b14801561230b57503373ffffffffffffffffffffffffffffffffffffffff16816020015173ffffffffffffffffffffffffffffffffffffffff1614155b1561233e578084848151811061232457612323615164565b5b6020026020010181905250828061233a906151c2565b9350505b50808061234a906151c2565b915050611f9c565b508194505050505090565b600360003373ffffffffffffffffffffffffffffffffffffffff1673ffffffffffffffffffffffffffffffffffffffff16815260200190815260200160002060009054906101000a900460ff166123e9576040517f08c379a00000000000000000000000000000000000000000000000000000000081526004016123e090615507565b60405180910390fd5b6000600160008981526020019081526020016000206000015414612442576040517f08c379a000000000000000000000000000000000000000000000000000000000815260040161243990615599565b60405180910390fd5b6040518061010001604052808881526020013373ffffffffffffffffffffffffffffffffffffffff168152602001600073ffffffffffffffffffffffffffffffffffffffff168152602001600060048111156124a1576124a061493b565b5b815260200160011515815260200187878080601f016020809104026020016040519081016040528093929190818152602001838380828437600081840152601f19601f82011690508083019250505050505050815260200185858080601f016020809104026020016040519081016040528093929190818152602001838380828437600081840152601f19601f82011690508083019250505050505050815260200183838080601f016020809104026020016040519081016040528093929190818152602001838380828437600081840152601f19601f82011690508083019250505050505050815250600160008981526020019081526020016000206000820151816000015560208201518160010160006101000a81548173ffffffffffffffffffffffffffffffffffffffff021916908373ffffffffffffffffffffffffffffffffffffffff16021790555060408201518160020160006101000a81548173ffffffffffffffffffffffffffffffffffffffff021916908373ffffffffffffffffffffffffffffffffffffffff16021790555060608201518160020160146101000a81548160ff021916908360048111156126615761266061493b565b5b021790555060808201518160020160156101000a81548160ff02191690831515021790555060a082015181600301908161269b919061576b565b5060c08201518160040190816126b1919061576b565b5060e08201518160050190816126c7919061576b565b509050506000879080600181540180825580915050600190039060005260206000200160009091909190915055600560003373ffffffffffffffffffffffffffffffffffffffff1673ffffffffffffffffffffffffffffffffffffffff1681526020019081526020016000208790806001815401808255809150506001900390600052602060002001600090919091909150553373ffffffffffffffffffffffffffffffffffffffff167fd810998a0248808a33b20218e71759cb2ec1a182b398350ad606d742587c012c8888886040516127a493929190615879565b60405180910390a250505050505050565b600460003373ffffffffffffffffffffffffffffffffffffffff1673ffffffffffffffffffffffffffffffffffffffff16815260200190815260200160002060009054906101000a900460ff16806128565750600360003373ffffffffffffffffffffffffffffffffffffffff1673ffffffffffffffffffffffffffffffffffffffff16815260200190815260200160002060009054906101000a900460ff165b612895576040517f08c379a000000000000000000000000000000000000000000000000000000000815260040161288c9061591d565b60405180910390fd5b60006001600086815260200190815260200160002060000154036128ee576040517f08c379a00000000000000000000000000000000000000000000000000000000081526004016128e590615475565b60405180910390fd5b3373ffffffffffffffffffffffffffffffffffffffff166001600086815260200190815260200160002060010160009054906101000a900473ffffffffffffffffffffffffffffffffffffffff1673ffffffffffffffffffffffffffffffffffffffff1614612992576040517f08c379a000000000000000000000000000000000000000000000000000000000815260040161298990615989565b60405180910390fd5b6001600085815260200190815260200160002060020160149054906101000a900460ff1660048111156129c8576129c761493b565b5b8360048111156129db576129da61493b565b5b11612a1b576040517f08c379a0000000000000000000000000000000000000000000000000000000008152600401612a1290615a1b565b60405180910390fd5b826001600086815260200190815260200160002060020160146101000a81548160ff02191690836004811115612a5457612a5361493b565b5b02179055508181600160008781526020019081526020016000206005019182612a7e929190615a46565b507fd35271a8825f8de958bbcf4ee452b8bc87633dadfc705cf61cb73c0153c550978484848433604051612ab6959493929190615b16565b60405180910390a150505050565b60016020528060005260406000206000915090508060000154908060010160009054906101000a900473ffffffffffffffffffffffffffffffffffffffff16908060020160009054906101000a900473ffffffffffffffffffffffffffffffffffffffff16908060020160149054906101000a900460ff16908060020160159054906101000a900460ff1690806003018054612b5f90615268565b80601f0160208091040260200160405190810160405280929190818152602001828054612b8b90615268565b8015612bd85780601f10612bad57610100808354040283529160200191612bd8565b820191906000526020600020905b815481529060010190602001808311612bbb57829003601f168201915b505050505090806004018054612bed90615268565b80601f0160208091040260200160405190810160405280929190818152602001828054612c1990615268565b8015612c665780601f10612c3b57610100808354040283529160200191612c66565b820191906000526020600020905b815481529060010190602001808311612c4957829003601f168201915b505050505090806005018054612c7b90615268565b80601f0160208091040260200160405190810160405280929190818152602001828054612ca790615268565b8015612cf45780601f10612cc957610100808354040283529160200191612cf4565b820191906000526020600020905b815481529060010190602001808311612cd757829003601f168201915b5050505050905088565b60006060600060606000806060600080600160008b815260200190815260200160002060405180610100016040529081600082015481526020016001820160009054906101000a900473ffffffffffffffffffffffffffffffffffffffff1673ffffffffffffffffffffffffffffffffffffffff1673ffffffffffffffffffffffffffffffffffffffff1681526020016002820160009054906101000a900473ffffffffffffffffffffffffffffffffffffffff1673ffffffffffffffffffffffffffffffffffffffff1673ffffffffffffffffffffffffffffffffffffffff1681526020016002820160149054906101000a900460ff166004811115612e0857612e0761493b565b5b6004811115612e1a57612e1961493b565b5b81526020016002820160159054906101000a900460ff16151515158152602001600382018054612e4990615268565b80601f0160208091040260200160405190810160405280929190818152602001828054612e7590615268565b8015612ec25780601f10612e9757610100808354040283529160200191612ec2565b820191906000526020600020905b815481529060010190602001808311612ea557829003601f168201915b50505050508152602001600482018054612edb90615268565b80601f0160208091040260200160405190810160405280929190818152602001828054612f0790615268565b8015612f545780601f10612f2957610100808354040283529160200191612f54565b820191906000526020600020905b815481529060010190602001808311612f3757829003601f168201915b50505050508152602001600582018054612f6d90615268565b80601f0160208091040260200160405190810160405280929190818152602001828054612f9990615268565b8015612fe65780601f10612fbb57610100808354040283529160200191612fe6565b820191906000526020600020905b815481529060010190602001808311612fc957829003601f168201915b505050505081525050905080600001518160a0015182602001518360c00151846080015185606001518660e0015187604001519850985098509850985098509850985050919395975091939597565b600060016000838152602001908152602001600020600001540361308e576040517f08c379a000000000000000000000000000000000000000000000000000000000815260040161308590615bb0565b60405180910390fd5b600060048111156130a2576130a161493b565b5b6001600083815260200190815260200160002060020160149054906101000a900460ff1660048111156130d8576130d761493b565b5b14613118576040517f08c379a000000000000000000000000000000000000000000000000000000000815260040161310f90615c42565b60405180910390fd5b600180600083815260200190815260200160002060020160146101000a81548160ff021916908360048111156131515761315061493b565b5b0217905550336001600083815260200190815260200160002060020160006101000a81548173ffffffffffffffffffffffffffffffffffffffff021916908373ffffffffffffffffffffffffffffffffffffffff160217905550600660003373ffffffffffffffffffffffffffffffffffffffff1673ffffffffffffffffffffffffffffffffffffffff1681526020019081526020016000208190806001815401808255809150506001900390600052602060002001600090919091909150557fd35271a8825f8de958bbcf4ee452b8bc87633dadfc705cf61cb73c0153c550978160013360405161324593929190615cae565b60405180910390a150565b60606000600660003373ffffffffffffffffffffffffffffffffffffffff1673ffffffffffffffffffffffffffffffffffffffff1681526020019081526020016000208054806020026020016040519081016040528092919081815260200182805480156132dd57602002820191906000526020600020905b8154815260200190600101908083116132c9575b505050505090506000815190506000600560003373ffffffffffffffffffffffffffffffffffffffff1673ffffffffffffffffffffffffffffffffffffffff16815260200190815260200160002080548060200260200160405190810160405280929190818152602001828054801561337557602002820191906000526020600020905b815481526020019060010190808311613361575b5050505050905060005b815181101561371f576000600160008484815181106133a1576133a0615164565b5b6020026020010151815260200190815260200160002060405180610100016040529081600082015481526020016001820160009054906101000a900473ffffffffffffffffffffffffffffffffffffffff1673ffffffffffffffffffffffffffffffffffffffff1673ffffffffffffffffffffffffffffffffffffffff1681526020016002820160009054906101000a900473ffffffffffffffffffffffffffffffffffffffff1673ffffffffffffffffffffffffffffffffffffffff1673ffffffffffffffffffffffffffffffffffffffff1681526020016002820160149054906101000a900460ff16600481111561349e5761349d61493b565b5b60048111156134b0576134af61493b565b5b81526020016002820160159054906101000a900460ff161515151581526020016003820180546134df90615268565b80601f016020809104026020016040519081016040528092919081815260200182805461350b90615268565b80156135585780601f1061352d57610100808354040283529160200191613558565b820191906000526020600020905b81548152906001019060200180831161353b57829003601f168201915b5050505050815260200160048201805461357190615268565b80601f016020809104026020016040519081016040528092919081815260200182805461359d90615268565b80156135ea5780601f106135bf576101008083540402835291602001916135ea565b820191906000526020600020905b8154815290600101906020018083116135cd57829003601f168201915b5050505050815260200160058201805461360390615268565b80601f016020809104026020016040519081016040528092919081815260200182805461362f90615268565b801561367c5780601f106136515761010080835404028352916020019161367c565b820191906000526020600020905b81548152906001019060200180831161365f57829003601f168201915b50505050508152505090503373ffffffffffffffffffffffffffffffffffffffff16816020015173ffffffffffffffffffffffffffffffffffffffff161480156136f75750600073ffffffffffffffffffffffffffffffffffffffff16816040015173ffffffffffffffffffffffffffffffffffffffff1614155b1561370b578380613707906151c2565b9450505b508080613717906151c2565b91505061337f565b5060008267ffffffffffffffff81111561373c5761373b61520a565b5b60405190808252806020026020018201604052801561377557816020015b613762614830565b81526020019060019003908161375a5790505b5090506000805b8551811015613abf576001600087838151811061379c5761379b615164565b5b6020026020010151815260200190815260200160002060405180610100016040529081600082015481526020016001820160009054906101000a900473ffffffffffffffffffffffffffffffffffffffff1673ffffffffffffffffffffffffffffffffffffffff1673ffffffffffffffffffffffffffffffffffffffff1681526020016002820160009054906101000a900473ffffffffffffffffffffffffffffffffffffffff1673ffffffffffffffffffffffffffffffffffffffff1673ffffffffffffffffffffffffffffffffffffffff1681526020016002820160149054906101000a900460ff1660048111156138995761389861493b565b5b60048111156138ab576138aa61493b565b5b81526020016002820160159054906101000a900460ff161515151581526020016003820180546138da90615268565b80601f016020809104026020016040519081016040528092919081815260200182805461390690615268565b80156139535780601f1061392857610100808354040283529160200191613953565b820191906000526020600020905b81548152906001019060200180831161393657829003601f168201915b5050505050815260200160048201805461396c90615268565b80601f016020809104026020016040519081016040528092919081815260200182805461399890615268565b80156139e55780601f106139ba576101008083540402835291602001916139e5565b820191906000526020600020905b8154815290600101906020018083116139c857829003601f168201915b505050505081526020016005820180546139fe90615268565b80601f0160208091040260200160405190810160405280929190818152602001828054613a2a90615268565b8015613a775780601f10613a4c57610100808354040283529160200191613a77565b820191906000526020600020905b815481529060010190602001808311613a5a57829003601f168201915b505050505081525050838381518110613a9357613a92615164565b5b60200260200101819052508180613aa9906151c2565b9250508080613ab7906151c2565b91505061377c565b5060005b8351811015613e8257600060016000868481518110613ae557613ae4615164565b5b6020026020010151815260200190815260200160002060405180610100016040529081600082015481526020016001820160009054906101000a900473ffffffffffffffffffffffffffffffffffffffff1673ffffffffffffffffffffffffffffffffffffffff1673ffffffffffffffffffffffffffffffffffffffff1681526020016002820160009054906101000a900473ffffffffffffffffffffffffffffffffffffffff1673ffffffffffffffffffffffffffffffffffffffff1673ffffffffffffffffffffffffffffffffffffffff1681526020016002820160149054906101000a900460ff166004811115613be257613be161493b565b5b6004811115613bf457613bf361493b565b5b81526020016002820160159054906101000a900460ff16151515158152602001600382018054613c2390615268565b80601f0160208091040260200160405190810160405280929190818152602001828054613c4f90615268565b8015613c9c5780601f10613c7157610100808354040283529160200191613c9c565b820191906000526020600020905b815481529060010190602001808311613c7f57829003601f168201915b50505050508152602001600482018054613cb590615268565b80601f0160208091040260200160405190810160405280929190818152602001828054613ce190615268565b8015613d2e5780601f10613d0357610100808354040283529160200191613d2e565b820191906000526020600020905b815481529060010190602001808311613d1157829003601f168201915b50505050508152602001600582018054613d4790615268565b80601f0160208091040260200160405190810160405280929190818152602001828054613d7390615268565b8015613dc05780601f10613d9557610100808354040283529160200191613dc0565b820191906000526020600020905b815481529060010190602001808311613da357829003601f168201915b50505050508152505090503373ffffffffffffffffffffffffffffffffffffffff16816020015173ffffffffffffffffffffffffffffffffffffffff16148015613e3b5750600073ffffffffffffffffffffffffffffffffffffffff16816040015173ffffffffffffffffffffffffffffffffffffffff1614155b15613e6e5780848481518110613e5457613e53615164565b5b60200260200101819052508280613e6a906151c2565b9350505b508080613e7a906151c2565b915050613ac3565b50819550505050505090565b60036020528060005260406000206000915054906101000a900460ff1681565b600260009054906101000a900473ffffffffffffffffffffffffffffffffffffffff1673ffffffffffffffffffffffffffffffffffffffff163373ffffffffffffffffffffffffffffffffffffffff1614613f3e576040517f08c379a0000000000000000000000000000000000000000000000000000000008152600401613f3590615409565b60405180910390fd5b6001600460008373ffffffffffffffffffffffffffffffffffffffff1673ffffffffffffffffffffffffffffffffffffffff16815260200190815260200160002060006101000a81548160ff02191690831515021790555050565b600260009054906101000a900473ffffffffffffffffffffffffffffffffffffffff1681565b60008181548110613fcf57600080fd5b906000526020600020016000915090505481565b60606000600560003373ffffffffffffffffffffffffffffffffffffffff1673ffffffffffffffffffffffffffffffffffffffff16815260200190815260200160002080548060200260200160405190810160405280929190818152602001828054801561407057602002820191906000526020600020905b81548152602001906001019080831161405c575b505050505090506000805b82518110156144125760006001600085848151811061409d5761409c615164565b5b6020026020010151815260200190815260200160002060405180610100016040529081600082015481526020016001820160009054906101000a900473ffffffffffffffffffffffffffffffffffffffff1673ffffffffffffffffffffffffffffffffffffffff1673ffffffffffffffffffffffffffffffffffffffff1681526020016002820160009054906101000a900473ffffffffffffffffffffffffffffffffffffffff1673ffffffffffffffffffffffffffffffffffffffff1673ffffffffffffffffffffffffffffffffffffffff1681526020016002820160149054906101000a900460ff16600481111561419a5761419961493b565b5b60048111156141ac576141ab61493b565b5b81526020016002820160159054906101000a900460ff161515151581526020016003820180546141db90615268565b80601f016020809104026020016040519081016040528092919081815260200182805461420790615268565b80156142545780601f1061422957610100808354040283529160200191614254565b820191906000526020600020905b81548152906001019060200180831161423757829003601f168201915b5050505050815260200160048201805461426d90615268565b80601f016020809104026020016040519081016040528092919081815260200182805461429990615268565b80156142e65780601f106142bb576101008083540402835291602001916142e6565b820191906000526020600020905b8154815290600101906020018083116142c957829003601f168201915b505050505081526020016005820180546142ff90615268565b80601f016020809104026020016040519081016040528092919081815260200182805461432b90615268565b80156143785780601f1061434d57610100808354040283529160200191614378565b820191906000526020600020905b81548152906001019060200180831161435b57829003601f168201915b50505050508152505090503373ffffffffffffffffffffffffffffffffffffffff16816020015173ffffffffffffffffffffffffffffffffffffffff161480156143ea5750600260048111156143d1576143d061493b565b5b816060015160048111156143e8576143e761493b565b5b145b156143fe5782806143fa906151c2565b9350505b50808061440a906151c2565b91505061407b565b5060008167ffffffffffffffff81111561442f5761442e61520a565b5b60405190808252806020026020018201604052801561446857816020015b614455614830565b81526020019060019003908161444d5790505b5090506000805b84518110156148255760006001600087848151811061449157614490615164565b5b6020026020010151815260200190815260200160002060405180610100016040529081600082015481526020016001820160009054906101000a900473ffffffffffffffffffffffffffffffffffffffff1673ffffffffffffffffffffffffffffffffffffffff1673ffffffffffffffffffffffffffffffffffffffff1681526020016002820160009054906101000a900473ffffffffffffffffffffffffffffffffffffffff1673ffffffffffffffffffffffffffffffffffffffff1673ffffffffffffffffffffffffffffffffffffffff1681526020016002820160149054906101000a900460ff16600481111561458e5761458d61493b565b5b60048111156145a05761459f61493b565b5b81526020016002820160159054906101000a900460ff161515151581526020016003820180546145cf90615268565b80601f01602080910402602001604051908101604052809291908181526020018280546145fb90615268565b80156146485780601f1061461d57610100808354040283529160200191614648565b820191906000526020600020905b81548152906001019060200180831161462b57829003601f168201915b5050505050815260200160048201805461466190615268565b80601f016020809104026020016040519081016040528092919081815260200182805461468d90615268565b80156146da5780601f106146af576101008083540402835291602001916146da565b820191906000526020600020905b8154815290600101906020018083116146bd57829003601f168201915b505050505081526020016005820180546146f390615268565b80601f016020809104026020016040519081016040528092919081815260200182805461471f90615268565b801561476c5780601f106147415761010080835404028352916020019161476c565b820191906000526020600020905b81548152906001019060200180831161474f57829003601f168201915b50505050508152505090503373ffffffffffffffffffffffffffffffffffffffff16816020015173ffffffffffffffffffffffffffffffffffffffff161480156147de5750600260048111156147c5576147c461493b565b5b816060015160048111156147dc576147db61493b565b5b145b1561481157808484815181106147f7576147f6615164565b5b6020026020010181905250828061480d906151c2565b9350505b50808061481d906151c2565b91505061446f565b508194505050505090565b60405180610100016040528060008152602001600073ffffffffffffffffffffffffffffffffffffffff168152602001600073ffffffffffffffffffffffffffffffffffffffff168152602001600060048111156148915761489061493b565b5b81526020016000151581526020016060815260200160608152602001606081525090565b600081519050919050565b600082825260208201905092915050565b6000819050602082019050919050565b6000819050919050565b6148f4816148e1565b82525050565b600073ffffffffffffffffffffffffffffffffffffffff82169050919050565b6000614925826148fa565b9050919050565b6149358161491a565b82525050565b7f4e487b7100000000000000000000000000000000000000000000000000000000600052602160045260246000fd5b6005811061497b5761497a61493b565b5b50565b600081905061498c8261496a565b919050565b600061499c8261497e565b9050919050565b6149ac81614991565b82525050565b60008115159050919050565b6149c7816149b2565b82525050565b600081519050919050565b600082825260208201905092915050565b60005b83811015614a075780820151818401526020810190506149ec565b60008484015250505050565b6000601f19601f8301169050919050565b6000614a2f826149cd565b614a3981856149d8565b9350614a498185602086016149e9565b614a5281614a13565b840191505092915050565b600061010083016000830151614a7660008601826148eb565b506020830151614a89602086018261492c565b506040830151614a9c604086018261492c565b506060830151614aaf60608601826149a3565b506080830151614ac260808601826149be565b5060a083015184820360a0860152614ada8282614a24565b91505060c083015184820360c0860152614af48282614a24565b91505060e083015184820360e0860152614b0e8282614a24565b9150508091505092915050565b6000614b278383614a5d565b905092915050565b6000602082019050919050565b6000614b47826148b5565b614b5181856148c0565b935083602082028501614b63856148d1565b8060005b85811015614b9f5784840389528151614b808582614b1b565b9450614b8b83614b2f565b925060208a01995050600181019050614b67565b50829750879550505050505092915050565b60006020820190508181036000830152614bcb8184614b3c565b905092915050565b600080fd5b600080fd5b614be6816148e1565b8114614bf157600080fd5b50565b600081359050614c0381614bdd565b92915050565b614c128161491a565b8114614c1d57600080fd5b50565b600081359050614c2f81614c09565b92915050565b60008060408385031215614c4c57614c4b614bd3565b5b6000614c5a85828601614bf4565b9250506020614c6b85828601614c20565b9150509250929050565b600060208284031215614c8b57614c8a614bd3565b5b6000614c9984828501614c20565b91505092915050565b614cab816149b2565b82525050565b6000602082019050614cc66000830184614ca2565b92915050565b600060208284031215614ce257614ce1614bd3565b5b6000614cf084828501614bf4565b91505092915050565b600081519050919050565b600082825260208201905092915050565b6000819050602082019050919050565b6000614d31838361492c565b60208301905092915050565b6000602082019050919050565b6000614d5582614cf9565b614d5f8185614d04565b9350614d6a83614d15565b8060005b83811015614d9b578151614d828882614d25565b9750614d8d83614d3d565b925050600181019050614d6e565b5085935050505092915050565b60006020820190508181036000830152614dc28184614d4a565b905092915050565b600080fd5b600080fd5b600080fd5b60008083601f840112614def57614dee614dca565b5b8235905067ffffffffffffffff811115614e0c57614e0b614dcf565b5b602083019150836001820283011115614e2857614e27614dd4565b5b9250929050565b60008060008060008060006080888a031215614e4e57614e4d614bd3565b5b6000614e5c8a828b01614bf4565b975050602088013567ffffffffffffffff811115614e7d57614e7c614bd8565b5b614e898a828b01614dd9565b9650965050604088013567ffffffffffffffff811115614eac57614eab614bd8565b5b614eb88a828b01614dd9565b9450945050606088013567ffffffffffffffff811115614edb57614eda614bd8565b5b614ee78a828b01614dd9565b925092505092959891949750929550565b60058110614f0557600080fd5b50565b600081359050614f1781614ef8565b92915050565b60008060008060608587031215614f3757614f36614bd3565b5b6000614f4587828801614bf4565b9450506020614f5687828801614f08565b935050604085013567ffffffffffffffff811115614f7757614f76614bd8565b5b614f8387828801614dd9565b925092505092959194509250565b614f9a816148e1565b82525050565b614fa98161491a565b82525050565b614fb881614991565b82525050565b600082825260208201905092915050565b6000614fda826149cd565b614fe48185614fbe565b9350614ff48185602086016149e9565b614ffd81614a13565b840191505092915050565b60006101008201905061501e600083018b614f91565b61502b602083018a614fa0565b6150386040830189614fa0565b6150456060830188614faf565b6150526080830187614ca2565b81810360a08301526150648186614fcf565b905081810360c08301526150788185614fcf565b905081810360e083015261508c8184614fcf565b90509998505050505050505050565b6000610100820190506150b1600083018b614f91565b81810360208301526150c3818a614fcf565b90506150d26040830189614fa0565b81810360608301526150e48188614fcf565b90506150f36080830187614ca2565b61510060a0830186614faf565b81810360c08301526151128185614fcf565b905061512160e0830184614fa0565b9998505050505050505050565b60006020820190506151436000830184614fa0565b92915050565b600060208201905061515e6000830184614f91565b92915050565b7f4e487b7100000000000000000000000000000000000000000000000000000000600052603260045260246000fd5b7f4e487b7100000000000000000000000000000000000000000000000000000000600052601160045260246000fd5b60006151cd826148e1565b91507fffffffffffffffffffffffffffffffffffffffffffffffffffffffffffffffff82036151ff576151fe615193565b5b600182019050919050565b7f4e487b7100000000000000000000000000000000000000000000000000000000600052604160045260246000fd5b7f4e487b7100000000000000000000000000000000000000000000000000000000600052602260045260246000fd5b6000600282049050600182168061528057607f821691505b60208210810361529357615292615239565b5b50919050565b7f53433a204f6e6c792063757272656e74206f776e65722063616e207472616e7360008201527f6665722e00000000000000000000000000000000000000000000000000000000602082015250565b60006152f5602483614fbe565b915061530082615299565b604082019050919050565b60006020820190508181036000830152615324816152e8565b9050919050565b7f53433a2050726f6475637420646f6573206e6f742065786973742e0000000000600082015250565b6000615361601b83614fbe565b915061536c8261532b565b602082019050919050565b6000602082019050818103600083015261539081615354565b9050919050565b7f53433a204f6e6c7920636f6e7472616374206f776e65722063616e2063616c6c60008201527f20746869732066756e6374696f6e2e0000000000000000000000000000000000602082015250565b60006153f3602f83614fbe565b91506153fe82615397565b604082019050919050565b60006020820190508181036000830152615422816153e6565b9050919050565b7f53433a2050726f64756374206e6f7420666f756e642e00000000000000000000600082015250565b600061545f601683614fbe565b915061546a82615429565b602082019050919050565b6000602082019050818103600083015261548e81615452565b9050919050565b7f53433a204163636573732064656e6965642e204d75737420626520612076657260008201527f6966696564204661726d65722e00000000000000000000000000000000000000602082015250565b60006154f1602d83614fbe565b91506154fc82615495565b604082019050919050565b60006020820190508181036000830152615520816154e4565b9050919050565b7f53433a2050726f6475637420494420616c72656164792072656769737465726560008201527f642e000000000000000000000000000000000000000000000000000000000000602082015250565b6000615583602283614fbe565b915061558e82615527565b604082019050919050565b600060208201905081810360008301526155b281615576565b9050919050565b60008190508160005260206000209050919050565b60006020601f8301049050919050565b60008160020a8302905092915050565b60006008830261561e7fffffffffffffffffffffffffffffffffffffffffffffffffffffffffffffffff826155de565b61562886836155de565b95508019841693508086168417925050509392505050565b6000819050919050565b600061566561566061565b846148e1565b615640565b6148e1565b9050919050565b6000819050919050565b61567f8361564a565b61569361568b8261566c565b8484546155ee565b825550505050565b600090565b6156a861569b565b6156b3818484615676565b505050565b5b818110156156d7576156cc6000826156a0565b6001810190506156b9565b5050565b601f82111561571c576156ed816155b9565b6156f6846155ce565b81016020851015615705578190505b615719615711856155ce565b8301826156b8565b50505b505050565b60008160020a8304905092915050565b600061574260001984600802615721565b1980831691505092915050565b600061575b8383615731565b9150826002028217905092915050565b615774826149cd565b67ffffffffffffffff81111561578d5761578c61520a565b5b6157978254615268565b6157a28282856156db565b600060209050601f8311600181146157d557600084156157c3578287015190505b6157cd858261574f565b865550615835565b601f1984166157e3866155b9565b60005b8281101561580b578489015182556001820191506020850194506020810190506157e6565b868310156158285784890151615824601f891682615731565b8355505b6001600288020188555050505b505050505050565b82818337600083830152505050565b60006158588385614fbe565b935061586583858461583d565b61586e83614a13565b840190509392505050565b600060408201905061588e6000830186614f91565b81810360208301526158a181848661584c565b9050949350505050565b7f53433a204163636573732064656e6965642e204e6f7420617574686f72697a6560008201527f642e000000000000000000000000000000000000000000000000000000000000602082015250565b6000615907602283614fbe565b9150615912826158ab565b604082019050919050565b60006020820190508181036000830152615936816158fa565b9050919050565b7f53433a20596f7520617265206e6f7420746865206f776e65722e000000000000600082015250565b6000615973601a83614fbe565b915061597e8261593d565b602082019050919050565b600060208201905081810360008301526159a281615966565b9050919050565b7f53433a205374617475732063616e206f6e6c79206d6f766520666f727761726460008201527f2e00000000000000000000000000000000000000000000000000000000000000602082015250565b6000615a05602183614fbe565b9150615a10826159a9565b604082019050919050565b60006020820190508181036000830152615a34816159f8565b9050919050565b600082905092915050565b615a508383615a3b565b67ffffffffffffffff811115615a6957615a6861520a565b5b615a738254615268565b615a7e8282856156db565b6000601f831160018114615aad5760008415615a9b578287013590505b615aa5858261574f565b865550615b0d565b601f198416615abb866155b9565b60005b82811015615ae357848901358255600182019150602085019450602081019050615abe565b86831015615b005784890135615afc601f891682615731565b8355505b6001600288020188555050505b50505050505050565b6000608082019050615b2b6000830188614f91565b615b386020830187614faf565b8181036040830152615b4b81858761584c565b9050615b5a6060830184614fa0565b9695505050505050565b7f53433a2050726f6475637420646f6573206e6f74206578697374000000000000600082015250565b6000615b9a601a83614fbe565b9150615ba582615b64565b602082019050919050565b60006020820190508181036000830152615bc981615b8d565b9050919050565b7f53433a2050726f64756374206e6f7420617661696c61626c6520666f72206f7260008201527f6465720000000000000000000000000000000000000000000000000000000000602082015250565b6000615c2c602383614fbe565b9150615c3782615bd0565b604082019050919050565b60006020820190508181036000830152615c5b81615c1f565b9050919050565b7f4f72646572656420627920436f6e73756d657200000000000000000000000000600082015250565b6000615c98601383614fbe565b9150615ca382615c62565b602082019050919050565b6000608082019050615cc36000830186614f91565b615cd06020830185614faf565b8181036040830152615ce181615c8b565b9050615cf06060830184614fa0565b94935050505056fea264697066735822122089c5bb8a7e1ae8c4a91a208630ca4a04dc141f687473ea1106d2e7b7bdfbe05964736f6c63430008150033",
  "immutableReferences": {},
  "source": "// SPDX-License-Identifier: MIT\npragma solidity >=0.4.22 <0.9.0;\n\ncontract SupplyChain {\n    // 1. Update State Enum to include 'Ordered'\n    enum State {\n        Created,\n        Ordered,\n        InTransit,\n        Stored,\n        Delivered\n    }\n    struct Product {\n        uint256 id;\n        address currentOwner;\n        address orderedBy;\n        State state;\n        bool isAuthentic;\n        string name;\n        string origin;\n        string ipfsHash;\n    }\n\n    // Array to keep track of all IDs (Required for \"View\" functions)\n    uint256[] public allProductIds;\n\n    mapping(uint256 => Product) public products;\n\n    address public contractOwner;\n    mapping(address => bool) public isVerifiedFarmer;\n    mapping(address => bool) public isAuthorizedEntity;\n\n    // Optimized lookups\n    mapping(address => uint256[]) private _productsByOwner;\n    mapping(address => uint256[]) private _ordersByUser;\n\n    event ProductRegistered(\n        uint256 productId,\n        string name,\n        address indexed farmer\n    );\n    event OwnershipTransferred(\n        uint256 productId,\n        address indexed from,\n        address indexed to\n    );\n    event StatusUpdated(uint256 productId, State newState, string ipfsData, address actor);\n\n    modifier onlyOwner() {\n        require(\n            msg.sender == contractOwner,\n            \"SC: Only contract owner can call this function.\"\n        );\n        _;\n    }\n\n    modifier onlyFarmer() {\n        require(\n            isVerifiedFarmer[msg.sender],\n            \"SC: Access denied. Must be a verified Farmer.\"\n        );\n        _;\n    }\n\n    modifier onlyAuthorized() {\n        require(\n            isAuthorizedEntity[msg.sender] || isVerifiedFarmer[msg.sender],\n            \"SC: Access denied. Not authorized.\"\n        );\n        _;\n    }\n\n    constructor() {\n        contractOwner = msg.sender;\n    }\n\n    function setFarmerRole(address _user) public onlyOwner {\n        isVerifiedFarmer[_user] = true;\n        isAuthorizedEntity[_user] = true;\n    }\n\n    function setEntityRole(address _user) public onlyOwner {\n        isAuthorizedEntity[_user] = true;\n    }\n\n    function registerProduct(\n        uint256 _id,\n        string calldata _name,\n        string calldata _origin,\n        string calldata _ipfsHash\n    ) public onlyFarmer {\n        require(products[_id].id == 0, \"SC: Product ID already registered.\");\n\n        products[_id] = Product({\n            id: _id,\n            currentOwner: msg.sender,\n            orderedBy: address(0),\n            state: State.Created,\n            isAuthentic: true,\n            name: _name,\n            origin: _origin,\n            ipfsHash: _ipfsHash\n        });\n\n        //Save ID to array so we can list it later\n        allProductIds.push(_id);\n        _productsByOwner[msg.sender].push(_id);\n\n        emit ProductRegistered(_id, _name, msg.sender);\n    }\n\n    function getAvailableProducts() public view returns (Product[] memory) {\n        uint256 count = 0;\n\n        for (uint256 i = 0; i < allProductIds.length; i++) {\n            if (products[allProductIds[i]].state == State.Created) {\n                count++;\n            }\n        }\n\n        Product[] memory availableItems = new Product[](count);\n        uint256 index = 0;\n\n        for (uint256 i = 0; i < allProductIds.length; i++) {\n            if (products[allProductIds[i]].state == State.Created) {\n                availableItems[index] = products[allProductIds[i]];\n                index++;\n            }\n        }\n\n        return availableItems;\n    }\n\n    function placeOrder(uint256 _id) public {\n        require(products[_id].id != 0, \"SC: Product does not exist\");\n        require(\n            products[_id].state == State.Created,\n            \"SC: Product not available for order\"\n        );\n\n        products[_id].state = State.Ordered;\n        products[_id].orderedBy = msg.sender;\n        _ordersByUser[msg.sender].push(_id);\n\n        emit StatusUpdated(_id, State.Ordered, \"Ordered by Consumer\", msg.sender);\n    }\n\n    function getMyOrders() public view returns (Product[] memory) {\n        uint256[] memory orderIds = _ordersByUser[msg.sender];\n        uint256 count = orderIds.length;\n        \n        // Also include products I'm selling that are ordered\n        // This is still O(N) on my products, but better than O(N) on all products\n        uint256[] memory myProductIds = _productsByOwner[msg.sender];\n        for(uint256 i = 0; i < myProductIds.length; i++) {\n             Product memory p = products[myProductIds[i]];\n             if (p.currentOwner == msg.sender && p.orderedBy != address(0)) {\n                 count++;\n             }\n        }\n\n        Product[] memory result = new Product[](count);\n        uint256 index = 0;\n\n        // Add my orders\n        for (uint256 i = 0; i < orderIds.length; i++) {\n            result[index] = products[orderIds[i]];\n            index++;\n        }\n\n        // Add my sales\n        for (uint256 i = 0; i < myProductIds.length; i++) {\n             Product memory p = products[myProductIds[i]];\n             if (p.currentOwner == msg.sender && p.orderedBy != address(0)) {\n                 result[index] = p;\n                 index++;\n             }\n        }\n        \n        return result;\n    }\n\n    function transferOwnership(uint256 _id, address _newOwner) public {\n        require(\n            products[_id].currentOwner == msg.sender,\n            \"SC: Only current owner can transfer.\"\n        );\n        require(products[_id].id != 0, \"SC: Product does not exist.\");\n        address previousOwner = products[_id].currentOwner;\n        products[_id].currentOwner = _newOwner;\n        \n        _productsByOwner[_newOwner].push(_id);\n        \n        emit OwnershipTransferred(_id, previousOwner, _newOwner);\n    }\n\n    function updateStatus(\n        uint256 _id,\n        State _state,\n        string calldata _ipfsData\n    ) public onlyAuthorized {\n        require(products[_id].id != 0, \"SC: Product not found.\");\n        require(\n            products[_id].currentOwner == msg.sender,\n            \"SC: You are not the owner.\"\n        );\n        require(\n            uint256(_state) > uint256(products[_id].state),\n            \"SC: Status can only move forward.\"\n        );\n\n        products[_id].state = _state;\n        products[_id].ipfsHash = _ipfsData;\n\n        emit StatusUpdated(_id, _state, _ipfsData, msg.sender);\n    }\n\n    function getProduct(\n        uint256 _id\n    )\n        public\n        view\n        returns (\n            uint256 id,\n            string memory name,\n            address currentOwner,\n            string memory origin,\n            bool isAuthentic,\n            State state,\n            string memory ipfsHash,\n            address orderedBy\n        )\n    {\n        Product memory p = products[_id];\n        return (\n            p.id,\n            p.name,\n            p.currentOwner,\n            p.origin,\n            p.isAuthentic,\n            p.state,\n            p.ipfsHash,\n            p.orderedBy\n        );\n    }\n\n    function getProductHistory(\n        uint256 _id\n    ) public view returns (address[] memory) {\n        require(products[_id].id != 0, \"SC: Product not found.\");\n        // History is no longer stored on-chain. \n        // Frontend should query 'OwnershipTransferred' events.\n        return new address[](0);\n    }\n\n    function verifyProduct(uint256 _id) public view returns (bool) {\n        return products[_id].isAuthentic;\n    }\n\n    // ========== DISTRIBUTOR FUNCTIONS ==========\n\n    /**\n     * Get all products currently owned by the caller (Distributor Inventory)\n     * @return Array of products owned by msg.sender\n     */\n    function getDistributorInventory() public view returns (Product[] memory) {\n        uint256[] memory myProductIds = _productsByOwner[msg.sender];\n        uint256 count = 0;\n\n        // Count products I currently own\n        for (uint256 i = 0; i < myProductIds.length; i++) {\n            if (products[myProductIds[i]].currentOwner == msg.sender) {\n                count++;\n            }\n        }\n\n        Product[] memory inventory = new Product[](count);\n        uint256 index = 0;\n\n        for (uint256 i = 0; i < myProductIds.length; i++) {\n            if (products[myProductIds[i]].currentOwner == msg.sender) {\n                inventory[index] = products[myProductIds[i]];\n                index++;\n            }\n        }\n\n        return inventory;\n    }\n\n    /**\n     * Get products that need to be delivered (in Stored state)\n     * @return Array of products in Stored state owned by msg.sender\n     */\n    function getDeliveryQueue() public view returns (Product[] memory) {\n        uint256[] memory myProductIds = _productsByOwner[msg.sender];\n        uint256 count = 0;\n\n        for (uint256 i = 0; i < myProductIds.length; i++) {\n            Product memory p = products[myProductIds[i]];\n            if (p.currentOwner == msg.sender && p.state == State.Stored) {\n                count++;\n            }\n        }\n\n        Product[] memory queue = new Product[](count);\n        uint256 index = 0;\n\n        for (uint256 i = 0; i < myProductIds.length; i++) {\n            Product memory p = products[myProductIds[i]];\n            if (p.currentOwner == msg.sender && p.state == State.Stored) {\n                queue[index] = p;\n                index++;\n            }\n        }\n\n        return queue;\n    }\n\n    /**\n     * Get products that have been received but not yet stored (in InTransit state)\n     * @return Array of products in InTransit state owned by msg.sender\n     */\n    function getReceivedProducts() public view returns (Product[] memory) {\n        uint256[] memory myProductIds = _productsByOwner[msg.sender];\n        uint256 count = 0;\n\n        for (uint256 i = 0; i < myProductIds.length; i++) {\n            Product memory p = products[myProductIds[i]];\n            if (p.currentOwner == msg.sender && p.state == State.InTransit) {\n                count++;\n            }\n        }\n\n        Product[] memory received = new Product[](count);\n        uint256 index = 0;\n\n        for (uint256 i = 0; i < myProductIds.length; i++) {\n            Product memory p = products[myProductIds[i]];\n            if (p.currentOwner == msg.sender && p.state == State.InTransit) {\n                received[index] = p;\n                index++;\n            }\n        }\n\n        return received;\n    }\n\n    /**\n     * Get products that have been delivered (in Delivered state and I was the previous owner)\n     * @return Array of products in Delivered state that were owned by msg.sender\n     */\n    function getDeliveryHistory() public view returns (Product[] memory) {\n        // This function is tricky because we need to find products I *used* to own that are now Delivered.\n        // With _productsByOwner, we have a list of all products I ever touched.\n        \n        uint256[] memory myProductIds = _productsByOwner[msg.sender];\n        uint256 count = 0;\n\n        for (uint256 i = 0; i < myProductIds.length; i++) {\n            Product memory p = products[myProductIds[i]];\n            // Check if product is delivered and I am NOT the current owner (meaning I passed it on)\n            if (p.state == State.Delivered && p.currentOwner != msg.sender) {\n                 count++;\n            }\n        }\n\n        Product[] memory history = new Product[](count);\n        uint256 index = 0;\n\n        for (uint256 i = 0; i < myProductIds.length; i++) {\n            Product memory p = products[myProductIds[i]];\n             if (p.state == State.Delivered && p.currentOwner != msg.sender) {\n                history[index] = p;\n                index++;\n            }\n        }\n\n        return history;\n    }\n}\n",
  "sourcePath": "/Users/kiran/Desktop/ASU_related/food-supply/food-supplychain/contracts/SupplyChain.sol",
  "compiler": {
    "name": "solc",
    "version": "0.8.21+commit.d9974bed.Emscripten.clang"
  },
  "schemaVersion": "3.4.16",
  "updatedAt": "2025-12-02T03:41:12.078Z",
  "networkType": "ethereum",
  "devdoc": {
    "kind": "dev",
    "methods": {
      "getDeliveryHistory()": {
        "returns": {
          "_0": "Array of products in Delivered state that were owned by msg.sender"
        }
      },
      "getDeliveryQueue()": {
        "returns": {
          "_0": "Array of products in Stored state owned by msg.sender"
        }
      },
      "getDistributorInventory()": {
        "returns": {
          "_0": "Array of products owned by msg.sender"
        }
      },
      "getReceivedProducts()": {
        "returns": {
          "_0": "Array of products in InTransit state owned by msg.sender"
        }
      }
    },
    "version": 1
  },
  "userdoc": {
    "kind": "user",
    "methods": {
      "getDeliveryHistory()": {
        "notice": "Get products that have been delivered (in Delivered state and I was the previous owner)"
      },
      "getDeliveryQueue()": {
        "notice": "Get products that need to be delivered (in Stored state)"
      },
      "getDistributorInventory()": {
        "notice": "Get all products currently owned by the caller (Distributor Inventory)"
      },
      "getReceivedProducts()": {
        "notice": "Get products that have been received but not yet stored (in InTransit state)"
      }
    },
    "version": 1
  }
}